:020000040000fa
:080000000002040000000000f2
:020000040000fa
:040008008803000069
:020000040000fa
:04000c005c03000091
:020000040000fa
:040010007403000075
:020000040000fa
:04001400660300007f
:020000040000fa
:040018007e03000063
:020000040000fa
:04001c008803000055
:020000040000fa
:040020008803000051
:020000040000fa
:04002400880300004d
:020000040000fa
:040028008803000049
:020000040000fa
:04002c008803000045
:020000040000fa
:040030008803000041
:020000040000fa
:04003400880300003d
:020000040000fa
:040038008803000039
:020000040000fa
:04003c008803000035
:020000040000fa
:040040008803000031
:020000040000fa
:0400440014030000a1
:020000040000fa
:040048008803000029
:020000040000fa
:04004c008803000025
:020000040000fa
:040050008803000021
:020000040000fa
:04005400880300001d
:020000040000fa
:040058008803000019
:020000040000fa
:04005c008803000015
:020000040000fa
:040060008803000011
:020000040000fa
:04006400880300000d
:020000040000fa
:040068008803000009
:020000040000fa
:04006c008803000005
:020000040000fa
:040070008803000001
:020000040000fa
:0400740088030000fd
:020000040000fa
:0400780088030000f9
:020000040000fa
:04007c0088030000f5
:020000040000fa
:0400800088030000f1
:020000040000fa
:0400840088030000ed
:020000040000fa
:0400880088030000e9
:020000040000fa
:04008c0088030000e5
:020000040000fa
:0400900088030000e1
:020000040000fa
:0400940088030000dd
:020000040000fa
:0400980088030000d9
:020000040000fa
:04009c0088030000d5
:020000040000fa
:0400a00088030000d1
:020000040000fa
:0400a40088030000cd
:020000040000fa
:0400a80088030000c9
:020000040000fa
:0400ac0088030000c5
:020000040000fa
:0400b00088030000c1
:020000040000fa
:0400b40088030000bd
:020000040000fa
:0400b80088030000b9
:020000040000fa
:0400bc0088030000b5
:020000040000fa
:0400c00088030000b1
:020000040000fa
:0400c40088030000ad
:020000040000fa
:0400c80088030000a9
:020000040000fa
:0400cc0088030000a5
:020000040000fa
:0400d00088030000a1
:020000040000fa
:0400d400880300009d
:020000040000fa
:0400d8008803000099
:020000040000fa
:0400dc008803000095
:020000040000fa
:0400e0008803000091
:020000040000fa
:0400e400880300008d
:020000040000fa
:0400e8008803000089
:020000040000fa
:0400ec008803000085
:020000040000fa
:0400f0008803000081
:020000040000fa
:0400f400880300007d
:020000040000fa
:0400f8008803000079
:020000040000fa
:0400fc008803000075
:020000040000fa
:040100008803000070
:020000040000fa
:04010400880300006c
:020000040000fa
:040108008803000068
:020000040000fa
:04010c008803000064
:020000040000fa
:040110008803000060
:020000040000fa
:04011400880300005c
:020000040000fa
:040118008803000058
:020000040000fa
:04011c008803000054
:020000040000fa
:040120008803000050
:020000040000fa
:04012400880300004c
:020000040000fa
:040128008803000048
:020000040000fa
:04012c008803000044
:020000040000fa
:040130008803000040
:020000040000fa
:04013400880300003c
:020000040000fa
:040138008803000038
:020000040000fa
:04013c008803000034
:020000040000fa
:040140008803000030
:020000040000fa
:04014400880300002c
:020000040000fa
:040148008803000028
:020000040000fa
:04014c008803000024
:020000040000fa
:040150008803000020
:020000040000fa
:04015400880300001c
:020000040000fa
:040158008803000018
:020000040000fa
:04015c008803000014
:020000040000fa
:040160008803000010
:020000040000fa
:04016400880300000c
:020000040000fa
:040168008803000008
:020000040000fa
:04016c008803000004
:020000040000fa
:040170008803000000
:020000040000fa
:0401740088030000fc
:020000040000fa
:0401780088030000f8
:020000040000fa
:04017c0088030000f4
:020000040000fa
:0401800088030000f0
:020000040000fa
:0401840088030000ec
:020000040000fa
:0401880088030000e8
:020000040000fa
:04018c0088030000e4
:020000040000fa
:0401900088030000e0
:020000040000fa
:0401940088030000dc
:020000040000fa
:0401980088030000d8
:020000040000fa
:04019c0088030000d4
:020000040000fa
:0401a00088030000d0
:020000040000fa
:0401a40088030000cc
:020000040000fa
:0401a80088030000c8
:020000040000fa
:0401ac0088030000c4
:020000040000fa
:0401b00088030000c0
:020000040000fa
:0401b40088030000bc
:020000040000fa
:0401b80088030000b8
:020000040000fa
:0401bc0088030000b4
:020000040000fa
:0401c00088030000b0
:020000040000fa
:0401c40088030000ac
:020000040000fa
:0401c80088030000a8
:020000040000fa
:0401cc0088030000a4
:020000040000fa
:0401d00088030000a0
:020000040000fa
:0401d400880300009c
:020000040000fa
:0401d8008803000098
:020000040000fa
:0401dc008803000094
:020000040000fa
:0401e0008803000090
:020000040000fa
:0401e400880300008c
:020000040000fa
:0401e8008803000088
:020000040000fa
:0401ec008803000084
:020000040000fa
:0401f0008803000080
:020000040000fa
:0401f400880300007c
:020000040000fa
:0401f8008803000078
:020000040000fa
:0401fc008803000074
:020000040000fa
:040208008803000067
:020000040000fa
:04020c008803000063
:020000040000fa
:04021000880300005f
:020000040000fa
:04021400880300005b
:020000040000fa
:040218008803000057
:020000040000fa
:04021c008803000053
:020000040000fa
:04022000880300004f
:020000040000fa
:04022400880300004b
:020000040000fa
:040228008803000047
:020000040000fa
:04022c008803000043
:020000040000fa
:04023000880300003f
:020000040000fa
:04023400880300003b
:020000040000fa
:040238008803000037
:020000040000fa
:04023c008803000033
:020000040000fa
:04024000880300002f
:020000040000fa
:04024400880300002b
:020000040000fa
:040248008803000027
:020000040000fa
:04024c008803000023
:020000040000fa
:04025000880300001f
:020000040000fa
:04025400880300001b
:020000040000fa
:040258008803000017
:020000040000fa
:04025c008803000013
:020000040000fa
:04026000880300000f
:020000040000fa
:04026400880300000b
:020000040000fa
:040268008803000007
:020000040000fa
:04026c008803000003
:020000040000fa
:0402700088030000ff
:020000040000fa
:0402740088030000fb
:020000040000fa
:0402780088030000f7
:020000040000fa
:04027c0088030000f3
:020000040000fa
:0402800088030000ef
:020000040000fa
:0402840088030000eb
:020000040000fa
:0402880088030000e7
:020000040000fa
:04028c0088030000e3
:020000040000fa
:0402900088030000df
:020000040000fa
:0402940088030000db
:020000040000fa
:0402980088030000d7
:020000040000fa
:04029c0088030000d3
:020000040000fa
:0402a00088030000cf
:020000040000fa
:0402a40088030000cb
:020000040000fa
:0402a80088030000c7
:020000040000fa
:0402ac0088030000c3
:020000040000fa
:0402b00088030000bf
:020000040000fa
:0402b40088030000bb
:020000040000fa
:0402b80088030000b7
:020000040000fa
:0402bc0088030000b3
:020000040000fa
:0402c00088030000af
:020000040000fa
:0402c40088030000ab
:020000040000fa
:0402c80088030000a7
:020000040000fa
:0402cc0088030000a3
:020000040000fa
:0402d000880300009f
:020000040000fa
:0402d400880300009b
:020000040000fa
:0402d8008803000097
:020000040000fa
:0402dc008803000093
:020000040000fa
:0402e000880300008f
:020000040000fa
:0402e400880300008b
:020000040000fa
:0402e8008803000087
:020000040000fa
:0402ec008803000083
:020000040000fa
:0402f000880300007f
:020000040000fa
:0402f400880300007b
:020000040000fa
:0402f8008803000077
:020000040000fa
:0402fc008803000073
:020000040000fa
:04030000880300006e
:020000040000fa
:04030400880300006a
:020000040000fa
:040308008803000066
:020000040000fa
:04030c008803000062
:020000040000fa
:04031000880300005e
:020000040000fa
:04031400880300005a
:020000040000fa
:040318008803000056
:020000040000fa
:04031c008803000052
:020000040000fa
:04032000880300004e
:020000040000fa
:04032400880300004a
:020000040000fa
:040328008803000046
:020000040000fa
:04032c008803000042
:020000040000fa
:04033000880300003e
:020000040000fa
:04033400880300003a
:020000040000fa
:040338008803000036
:020000040000fa
:04033c008803000032
:020000040000fa
:04034000880300002e
:020000040000fa
:04034400880300002a
:020000040000fa
:040348008803000026
:020000040000fa
:04034c008803000022
:020000040000fa
:04035000880300001e
:020000040000fa
:04035400880300001a
:020000040000fa
:040358008803000016
:020000040000fa
:04035c008803000012
:020000040000fa
:04036000880300000e
:020000040000fa
:04036400880300000a
:020000040000fa
:040368008803000006
:020000040000fa
:04036c008803000002
:020000040000fa
:0403700088030000fe
:020000040000fa
:0403740088030000fa
:020000040000fa
:0403780088030000f6
:020000040000fa
:04037c0088030000f2
:020000040000fa
:0403800088030000ee
:020000040000fa
:0403840088030000ea
:020000040000fa
:0403880088030000e6
:020000040000fa
:04038c0088030000e2
:020000040000fa
:0403900088030000de
:020000040000fa
:0403940088030000da
:020000040000fa
:0403980088030000d6
:020000040000fa
:04039c0088030000d2
:020000040000fa
:0403a00088030000ce
:020000040000fa
:0403a40088030000ca
:020000040000fa
:0403a80088030000c6
:020000040000fa
:0403ac0088030000c2
:020000040000fa
:0403b00088030000be
:020000040000fa
:0403b40088030000ba
:020000040000fa
:0403b80088030000b6
:020000040000fa
:0403bc0088030000b2
:020000040000fa
:0403c00088030000ae
:020000040000fa
:0403c40088030000aa
:020000040000fa
:0403c80088030000a6
:020000040000fa
:0403cc0088030000a2
:020000040000fa
:0403d000880300009e
:020000040000fa
:0403d400880300009a
:020000040000fa
:0403d8008803000096
:020000040000fa
:0403dc008803000092
:020000040000fa
:0403e000880300008e
:020000040000fa
:0403e400880300008a
:020000040000fa
:0403e8008803000086
:020000040000fa
:0403ec008803000082
:020000040000fa
:0403f000880300007e
:020000040000fa
:0403f400880300007a
:020000040000fa
:0403f8008803000076
:020000040000fa
:0403fc008803000072
:020000040000fa
:100400002f8820000e7f22000e01880000000000cf
:10041000000020000000e000020032000001200087
:100420002002880014000700bb0007000000e00065
:1004300003003a006069210001002000020037003b
:100440000000200001002000810f70000100320038
:1004500014000700000020000000e000020032004d
:10046000000002000000000002180200000000006e
:100470000040da000000fe004440a900002e2000e9
:100480000000e000030032000020200090018800fe
:100490004440a800000006008a1f78008b1f7800e7
:1004a00000000600a1028800800478000000eb0034
:1004b0001f003700e284440054a0b4009905ba003c
:1004c000e284440054a0b4009906ba00e2844400d7
:1004d00054a0b4000006eb00476fde00fd07b20039
:1004e000ae018800636ce10003003a00eaff0700f8
:1004f0000000eb000e003700606ce10008003a00dd
:10050000004deb000a05e800020039003420ec0041
:100510000af0a0008b05e900f9ff3e000400370057
:100520006168e100010032000086eb000b0007006b
:1005300019c7ba001905ba000e04e00003003a001a
:100540000a00e000dbff3a0000000600fe07b200f0
:10055000ae0288008a047800f5ff37000cd0a300b3
:10056000e20f4d001c00390089027800354dba00b9
:100570000a05e800020039003420ec000af0a0006f
:100580008b05e9000f003200254dba000a05e8008e
:10059000020039003420ec000af0a0008b05e900cd
:1005a000080032000c00e0000600320015cdba0051
:1005b0000a05e800020039003420ec000af0a0002f
:1005c0008b05e9008984e80054a0b4000b00e0002a
:1005d000e2ff3a00000006009902ba00055d7800cb
:1005e0008b05e900f7ff3200c82ade00055d7800c0
:1005f0008b05e900f3ff32000c00e000f1ff320050
:1006000019ddba00eeff3700ae190400000000004b
:1006100060180400000000008812040000000000c0
:1006200028120400000000003600f800809fbe0081
:10063000829fbe00849fbe00869fbe003200f800ed
:100640003400f80010002000a001880000202000e5
:10065000900188000000fa0084e0a900c00c80002e
:100660004700de00614060000004a20061406000bd
:100670000080fb00610060004700dd00c10c8000cd
:100680000170a10001007000c00c88001a0a02006d
:10069000000000000080fa003400f9003200f90088
:1006a0004f03be004f02be004f01be004f00be0010
:1006b0003600f900004006003600f8008020a9004e
:1006c0000000eb00f6190200000000003600f80000
:1006d000a0190200000000008040a90010002000c6
:1006e000f6190200000000003600f8008060a90042
:1006f00020002000f6190200000000003600f8007b
:100700008080a90030002000f619020000000000df
:0c0710000040da000000fe0000000500c0
:020000040000fa
:10071c0000010000020200000303000003030000bc
:10072c00040400000404000004040000040400009d
:10073c000505000005050000050500000505000085
:10074c000505000005050000050500000505000075
:10075c00060600000606000006060000060600005d
:10076c00060600000606000006060000060600004d
:10077c00060600000606000006060000060600003d
:10078c00060600000606000006060000060600002d
:10079c000707000007070000070700000707000015
:1007ac000707000007070000070700000707000005
:1007bc0007070000070700000707000007070000f5
:1007cc0007070000070700000707000007070000e5
:1007dc0007070000070700000707000007070000d5
:1007ec0007070000070700000707000007070000c5
:1007fc0007070000070700000707000007070000b5
:10080c0007070000070700000707000007070000a4
:10081c00080800000808000008080000080800008c
:10082c00080800000808000008080000080800007c
:10083c00080800000808000008080000080800006c
:10084c00080800000808000008080000080800005c
:10085c00080800000808000008080000080800004c
:10086c00080800000808000008080000080800003c
:10087c00080800000808000008080000080800002c
:10088c00080800000808000008080000080800001c
:10089c00080800000808000008080000080800000c
:1008ac0008080000080800000808000008080000fc
:1008bc0008080000080800000808000008080000ec
:1008cc0008080000080800000808000008080000dc
:1008dc0008080000080800000808000008080000cc
:1008ec0008080000080800000808000008080000bc
:1008fc0008080000080800000808000008080000ac
:10090c00080800000808000008080000080800009b
:10091c00000100000204000008100000204000004c
:10092c0080010000020400000810000020400000bc
:10093c0080010000020400000810000020400000ac
:10094c00800100000204000008100000204000009c
:10095c00800100000204000008100000204000008c
:10096c00800100000204000008100000204000007c
:10097c00800100000204000008100000204000006c
:10098c00800100000204000008100000204000005c
:10099c0080ff0000fefd0000fbf70000efdf000011
:1009ac00bf7f0000fefd0000fbf70000efdf000042
:1009bc00bf7f0000fefd0000fbf70000efdf000032
:1009cc00bf7f0000fefd0000fbf70000efdf000022
:1009dc00bf7f0000fefd0000fbf70000efdf000012
:1009ec00bf7f0000fefd0000fbf70000efdf000002
:1009fc00bf7f0000fefd0000fbf70000efdf0000f2
:100a0c00bf7f0000fefd0000fbf70000efdf0000e1
:100a1c00bf7f00000000000000000000000000008c
:100a2c0000000000000100000101000001010000b5
:100a3c00010100000102000002020000020200009d
:100a4c000202000002030000030300000303000085
:100a5c00030300000304000004040000040400006d
:100a6c000404000004050000050500000505000055
:100a7c00050500000506000006060000060600003d
:100a8c000606000006070000070700000707000025
:100a9c000707000007000000000000000000000035
:100aac000100000000000000020000000000000037
:100abc000300000000000000342e0000352e000062
:100acc0030340000000000002e2e00002f620000c9
:100adc00737000002f620000737000002e63000022
:100aec0000000000716600005f610000637400008c
:100afc00003400002e3500002e30000034000000c1
:100b0c0071660000736d00005f6400006973000083
:100b1c000000000071660000736d00005f6900004a
:100b2c006e6900000000000071680000736d000029
:100b3c005f64000069730000000000007168000031
:100b4c00736d00005f6900006e690000000000001a
:100b5c00716100005f640000656600006572000052
:100b6c0000000000716100005f75000073750000eb
:100b7c00626100000000000071650000715f000000
:100b8c0066690000666f00000000000071650000df
:100b9c00715f00006c690000666f000000000000cf
:100bac00716600005f7000007370000075620000d9
:100bbc0000000000716d0000705f0000696e0000a5
:100bcc00697400000000000071740000655f000093
:100bdc00637400006f72000000000000717400006c
:100bec00655f000072610000726d00000000000083
:100bfc0071760000616e0000696c00006c61000091
:100c0c000000000071680000736d00005f69000057
:100c1c006e000000716100005f66000069660000f4
:100c2c006f000000716100005f67000065740000d8
:100c3c005f000000716100005f6c000069660000dd
:100c4c006f000000716100005f73000075620000ae
:100c5c0000000000716100005f75000073750000fa
:100c6c0062000000716600005f6e00006577000096
:100c7c0000000000716600005f7000006f6f0000e4
:100c8c006c000000716600005f7400006963000076
:100c9c006b000000716d0000705f00006765000064
:100cac0074000000716d0000705f00007075000032
:100cbc007400000071740000655f00006172000038
:100ccc006d000000716600005f67000063000000ab
:020000040000fa
:100cdc001800fa00200f9800310f98002e08900091
:100cec00100f78002e089000100090009e0f5000fe
:100cfc000400320051032000a0592800ba19020048
:100d0c00000000002e089000900090003107980021
:100d1c003e019000be0890002e08900002000100d9
:100d2c00204798002e409000e44f500005003a00f8
:100d3c003e019000215528002e0890000200010071
:100d4c00204798002e409000e34f5000edff3200fa
:100d5c002e409000e24f500029013a0000c0eb00f9
:100d6c00304798002e089000100090004007980023
:100d7c009e007800510798000d0037001e01780086
:100d8c00a15528002e089000020001000004e0008c
:100d9c0004003a001e017800215528002e0890000e
:100dac00020001002e08900090009000010f7800c6
:100dbc003e0090009e007800808f5000efff3a00bc
:100dcc00ce009000010f78003e0090009e0f500066
:100ddc0007003a003e019000a15528002e08900013
:100dec00020001000040eb0030479800bc003700c7
:100dfc001e017800215528002e08900002000100e9
:100e0c002e08900090009000010f78003e0090009a
:100e1c009e0f500003003a000040eb003047980052
:100e2c00af0037003e019000215528002e0890009d
:100e3c00020001002e089000100090009e0f500040
:100e4c0007003a003e019000a15528002e089000a2
:100e5c00020001000040eb0030479800a000370072
:100e6c002e089000900090004e009000808f500053
:100e7c0005003a003e019000a15528002e08900074
:100e8c0002000100960037000040eb00404798003c
:100e9c0010c0b300304798009e00780051079800ae
:100eac002e08900090009000010f78005e019000d9
:100ebc00215528002e0890000200010020479800c0
:100ecc00250037003e4090000040e8003047980075
:100edc003e4090000000fb00ae0890009100900096
:100eec000000400000004700680040000108780046
:100efc002e089000900090003e009000808f5000d3
:100f0c000f003a0010c0b300404798003e409000dc
:100f1c00e54f500004003400e1082000a0592800df
:100f2c00ba190200000000003e4090000040e900a9
:100f3c00304798000040eb0020479800060037002f
:100f4c002e08900010019000215528002e089000ca
:100f5c0002000100204798002e409000e34f500003
:100f6c00d8ff32004e4090000004e0005c003a00d4
:100f7c003e409000e54f50000400340091092000e1
:100f8c00a0592800ba190200000000003e01900090
:100f9c00a15528002e08900002000100be409000d0
:100fac004147980010c0b300204798004e40900075
:100fbc000000fb00000040000000470040009000d3
:100fcc009e0f500008003a000040eb0020479800ac
:100fdc004e4090000040e9003047980000c0eb0004
:100fec0040479800030037004e4090000040e90055
:100ffc00404798004e4090000004e000ebff3d009d
:10100c002e4090000004e0003500320010c0b30008
:10101c00204798001e017800a15528002e0890004a
:10102c00020001000004e00004003a001e017800f8
:10103c00215528002e089000020001002e08900077
:10104c0090009000010f7800be409000414798003e
:10105c004e4090000000fb000000400000004700e4
:10106c00400090009e0f500008003a004e40900047
:10107c000040e9003047980000c0eb004047980062
:10108c000040eb0020479800030037004e409000d2
:10109c000040e900404798004e4090000004e000fa
:1010ac00ebff3d002e4090000004e000d9ff3a0019
:1010bc000b0037003e4090000000fb000000400099
:1010cc000000470040019000615528002e08900058
:1010dc00020001003e4090000040e90030479800bb
:1010ec003e4090000004e000f2ff3d00ce00900076
:1010fc00010f78002e0890009e00780011009800d7
:10110c00390037000040eb00304798002e08900063
:10111c0010009000400798002e08900010019000dd
:10112c00215528002e089000020001001000370005
:10113c003e4090000040e800304798003e40900050
:10114c000000fb00ae0890009100900000004000f1
:10115c000000470068004000010878002e0890004d
:10116c0010019000215528002e089000020001006b
:10117c002e089000100090009e0f5000ecff3a00db
:10118c00ce0090002e089000110098003e40900078
:10119c00e54f500004003400010f2000a059280036
:1011ac00ba190200000000003e4090000000fb0055
:1011bc0000004000000047004001900061552800ed
:1011cc002e089000020001003e4090000040e90013
:1011dc00304798003e4090000004e000f2ff3d00d4
:1011ec00ce009000010f78001e017800e155280018
:1011fc002e08900002000100e24f5000c1ff3200a7
:10120c002e0890001e0878002e0890009e00780092
:0c121c00110098000080fa00000006009d
:020000040000fa
:101228001000fa003007980041079800520798000c
:1012380063079800644f98004e0090000000e0009b
:101248000c0032005e019000ee01900010002000ba
:1012580001002000800f5100818f590005003600e1
:101268006e48900080c0e8006e48900080cf500023
:1012780004003e00d1032000005e2800ba190200d5
:10128800000000003e009000ce00900001087800a9
:101298003e00900021c0b30061409800100020007b
:1012a8000100200010079800210798000b00370064
:1012b8003e0090006040900080c0e8003e00900032
:1012c800614098001e009000ae0090006100400050
:1012d800e080480010079800210798003e00900021
:1012e800e04090006e48900080cf5000f0ff390039
:1012f8003e009000e0409000614f98006e489000da
:101308000081fb008001eb005e009000ee00900081
:10131800800f5100818f590004003600b10420006d
:10132800005e2800ba190200000000006e48900014
:101338000080fb008000eb005e019000ee01900051
:1013480000005100818059005007980061079800fb
:101358003e00900011c0b300714098003e0090001c
:1013680010007800000f7800150037001e0090006c
:10137800000040009e0040001e0078000108780030
:101388001e007800100f78006e4890000080fb0067
:101398008000eb005e019000ee019000000051001b
:1013a8008180590050079800610798003e0090001e
:1013b800704090008040e8003e0090007140980026
:1013c8006e4890000081fb008001eb005e009000f9
:1013d800ee009000800f5100818f5900e3ff360026
:1013e8001e0078008000eb00010878003e009000a5
:1013f800f04090003e009000014898003e009000a8
:10140800f04090003e009000114898003e00900087
:10141800ce009000110098003e0090009e007800d9
:0c142800210098000080fa00000006007f
:020000040000fa
:101434000400fa000000eb0010079800ff3ffc00d6
:10144400e1438000010f78005a0037001e00780045
:10145400400090000000e00019003a00e0438000e2
:101464009e007800808f500004003a001e0078002f
:1014740020009000e04388000b0037001e0090001d
:101484000000e00004003a005104200080642800b9
:10149400ba190200000000001e007800a0009000ad
:1014a4001e009000210098001e007800304090003b
:1014b4008040e9001e007800314098003a0037006f
:1014c4001e007800400090008000e9001e007800b3
:1014d400410098001e007800400090000000e000e9
:1014e4002f003a001e007800500090000000e00039
:1014f400040032001e007800d00090001e00780026
:10150400410098000000fc009e0078001e00780056
:1015140030009000540c020000000000ff3ffc006b
:101524001e007800400090000000e00019003a001e
:10153400e04380009e007800808f500004003a0051
:101544001e00780020009000e04388000b00370064
:101554001e0090000000e00004003a008106200014
:1015640080642800ba190200000000001e00780000
:10157400a00090001e009000210098001e0078003a
:10158400304090008040e9001e007800314098000f
:10159400050037009e00780011079800020037000c
:1015a4009e007800110798001e007800a0009000ab
:1015b400010f78001e0078000000e000a3ff3a004d
:0c15c4000000fc000080fa00000006009f
:020000040000fa
:1015d0001400fa00000f9800110f98000e089000f8
:1015e000100f78000e089000100090000000e0003e
:1015f00004003200e09a21009e007800808f5000a5
:101600000400320041032000405a2800ba190200a9
:10161000000000000e089000100190009e0890004d
:101620000e08900002000100e24f5000040032005a
:1016300071032000405a2800ba190200000000007f
:101640000040eb00204798000e089000100090002a
:10165000200798000e0890001001900021552800e6
:101660000e08900002000100100037002e4090008c
:101670000040e800204798002e4090000000fb004a
:101680008e0890009100900000004000000047008c
:1016900064004000010878000e08900010019000de
:1016a000215528000e089000020001000e0890004d
:1016b000100090009e0f5000ecff3a00ae0090002a
:1016c0000e089000110098002e409000e54f500049
:1016d00004003400c1042000405a2800ba19020056
:1016e000000000002e4090000000fb0000004000c1
:1016f0000000470020019000615528000e0890006e
:10170000020001002e4090000040e90020479800b0
:101710002e4090000004e000f2ff3d00ae0090007b
:10172000010f78001e017800e15528000e08900096
:1017300002000100e24f5000c1ff32000e0890008d
:101740001e0878000e0890009e0078001100980096
:081750000080fa000000060011
:020000040000fa
:101758000400fa00000f780011079800ff3ffc0012
:101768001e009000204090000004e00005003200b8
:101778001e009000304090008040e8001e0090005d
:10178800314098001e007800200090000000e00022
:101798000e003a001e0078009e009000210098007c
:1017a800e0872000904078001e0078006048900094
:1017b8000080fb00e24828006240780080c070008a
:1017c800e087200001487800320037001e007800ca
:1017d800304890000004e00004003a00a104200012
:1017e80000622800ba190200000000001e007800fc
:1017f800204890008040e8001e00780021489800aa
:101808001e007800a04890001e0078000048900054
:1018180080cf500003003a001e0078008040eb00a3
:10182800214898001e007800b00090001e00780043
:10183800204890000080fb0000004000008040002d
:101848009e007800a1009000010878001e00780032
:101858009e009000210098001e00780030489000fb
:101868008040e9001e007800314898001e0078008a
:10187800c04890001e0078003048900080cf50008b
:10188800040036001e007800b04890001e00780062
:10189800414898000000fc000080fa0000000600a3
:020000040000fa
:1018a8000400fa00000f780011079800ff3ffc00c1
:1018b8001e009000204090000004e0000500320067
:1018c8001e009000304090008040e8001e0090000c
:1018d800314098001e007800200090000000e000d1
:1018e8000e003a001e0078009e009000210098002b
:1018f800e0872000904078001e0078006048900043
:101908000080fb00e24828006240780080c0700038
:10191800e0872000014878002d0037001e0078007d
:10192800304890000004e00004003a00110520004f
:1019380000612800ba190200000000001e007800ab
:10194800b00090001e007800104890000080fb0056
:1019580000004000008040009e00900001087800d0
:101968001e007800104890000004e00004003a00cf
:101978001e007800804890001e00780011489800ea
:101988001e007800104890008040e9001e00780092
:10199800114898001e007800304890008040e90007
:1019a8001e007800314898001e007800c04890005a
:1019b8001e0078003048900080cf500004003600a8
:1019c8001e007800b04890001e007800414898003a
:0c19d8000000fc000080fa000000060087
:020000040000fa
:1019e4000600fa00200798002e009000e0489000be
:1019f400214798002e4090000004e0000c003200c3
:101a04002e409000e84f500009003e002e40900008
:101a14000080fb0080004000e08520000080400042
:101a2400900078002e009000808f50000400320057
:101a340051032000805b2800ba1902000000000056
:101a44002e4090000080fb00015128006141780085
:101a54003247980040002000000f78002100370032
:101a6400ff3ffc00b14380001e00780080804000ee
:101a74003e4090000080fb00e14078002e40900042
:101a84000080fb00e24828006240780000c060004b
:101a94000004e00011003200b14380001e00780011
:101aa400808040003e4090000080fb00b3438000f3
:101ab4001e017800828141003e4190000281fb00ba
:101ac400e34179002e4190000281fb00f44c280090
:101ad4006441790002c16100827078000000fc005a
:101ae4001e0fe800c04380009e007800808f5000e5
:0c1af400dbff35000080fa000000060057
:020000040000fa
:101b00000400fa00000f780011079800ff3ffc0066
:101b10001e009000204090000004e000050032000c
:101b20001e009000304090008040e8001e009000b1
:101b3000314098001e007800100078000000e0009e
:101b40002f0032001e007800704090000004e0007a
:101b500004003a0041042000c05c2800ba190200c9
:101b6000000000001e007800604090008040e80007
:101b70001e007800614098001e007800e040900050
:101b80001e0078004040900080cf500003003a00d3
:101b90001e0078008040eb00614098001e00780035
:101ba000900090001e007800604090000080fb00d4
:101bb00000004000008040009e0078009100780006
:101bc000010878001e007800704090008040e90015
:101bd0001e007800714098001e0078008048900038
:101be0001e0078007040900080cf50000400360046
:101bf0001e007800f04090001e0078000148980018
:101c00001e0078009e009000010878000000fc0093
:081c10000080fa00000006004c
:020000040000fa
:101c18000400fa00000f780011079800ff3ffc004d
:101c28001e009000204090000004e00005003200f3
:101c38001e009000304090008040e8001e00900098
:101c4800314098001e007800100078000000e00085
:101c580004003a001e0078009e00900001087800f9
:101c68002d0037001e007800704090000004e0004e
:101c780004003a0071042000205c2800ba19020010
:101c8800000000001e007800900090001e00780000
:101c9800504090000080fb000000400000804000a1
:101ca8009e009000010878001e00780050409000c7
:101cb8000004e00004003a001e007800c0409000d4
:101cc8001e007800514098001e0078005040900097
:101cd8008040e9001e007800514098001e007800fe
:101ce800704090008040e9001e0078007140980024
:101cf8001e007800804890001e0078007040900018
:101d080080cf5000040036001e007800f04090009c
:101d18001e007800014898000000fc000080fa00ce
:041d280000000600b1
:020000040000fa
:101d2c000400fa00100798001e0090009000780044
:101d3c00c0438000808f50000400390081032000d4
:101d4c00605d2800ba19020000000000ff3ffc0093
:101d5c001e009000204090000004e00005003200be
:101d6c001e009000304090008040e8001e00900063
:101d7c00314098000000fc00b14380001e00900030
:101d8c001000780000804000104f78001f003700d2
:101d9c001e80fb000000df00004078006f40400018
:101dac00104798001e4090000080fb00f14c28006a
:101dbc00614078001e4f60001e4090000080fb00c8
:101dcc0080004000e085200000804000100078007a
:101ddc000000e00004003a00f1042000605d2800df
:101dec00ba190200000000001e4090000080fb00a9
:101dfc0080004000e085200000804000100078004a
:101e0c009e009000540c0200000000001e40780060
:101e1c000004e000deff3a001e0090009214020065
:0c1e2c00000000000080fa00000006002a
:020000040000fa
:101e38000400fa0010079800ff3ffc001e00900005
:101e4800200090000000e00004003a007103200028
:101e580080612800ba190200000000001e009000ee
:101e6800a0009000010f78001e009000b04890007c
:101e78001e0090000048900080cf50001d003200e6
:101e88001e009000b00090001e00900020489000b6
:101e98000080fb00000040000080400090007800b7
:101ea8001e009000210098001e009000204890001d
:101eb8000004e00004003a001e00900080489000f2
:101ec8001e009000214898001e00900020489000b5
:101ed8008040e9001e009000214898001e009000f4
:101ee800304890008040e8001e009000314898007b
:101ef8000d0037001e0090008000eb0021009800c4
:101f0800e0872000904078001e0090006048900014
:101f18000080fb00f24c28006240780080c060001e
:101f2800e0872000014878000000fc001e007800cf
:081f38000080fa000000060021
:020000040000fa
:101f40000a00fa00000f7800120798002307980093
:101f50003407980045079800e08120001040780081
:101f6000e24f500004003600710320000064280096
:101f7000ba19020000000000e08120001040780043
:101f80000004e00012003200e081200010407800e0
:101f90000080fb000000e9006a00b9000000780042
:101fa000e600400000802000008040009040780063
:101fb0003e0090000040780080cf500004003900bf
:101fc000b103200000642800ba19020000000000dc
:101fd0003e00900000417800e08120001040780031
:101fe0000080fb006a00b9008000780000802000bb
:101ff00000804000024278001e019000ae01900077
:102000009e0078001409020000000000e08120001a
:10201000104078008040e800e0812000014878000e
:082020000080fa000000060038
:020000040000fa
:102028000600fa0010079800210798001e0090008b
:10203800e0489000014f78001e80fb000151280005
:1020480061417800124798002e009000e30f50007d
:1020580012003400c0438000ae009000808f500012
:102068000e003d001e4078000004e0000b00320026
:102078001e407800e84f500008003e001e80fb001c
:1020880080004000e085200000804000900078003b
:102098001e009000808f5000040032007103200061
:1020a80080622800ba19020000000000ff3ffc000f
:1020b800b14380002e009000808040001e409000b8
:1020c8000080fb00b34380002e0190008281410014
:1020d8001e4190000281fb00e34179001e81fb0054
:1020e800e44828006441790002c1710082707800d8
:0c20f8000000fc000080fa000000060060
:020000040000fa
:102104000600fa0010079800210798001e009000ae
:10211400e0489000014f78001e80fb000151280028
:1021240061417800124798002e009000e30f5000a0
:1021340012003400c0438000ae009000808f500035
:102144000e003d001e4078000004e0000b00320049
:102154001e407800e84f500008003e001e80fb003f
:1021640080004000e085200000804000900078005e
:102174001e009000808f5000040032007103200084
:1021840000632800ba19020000000000ff3ffc00b1
:10219400b14380002e009000808040001e409000db
:1021a4000080fb00b34380002e0190008281410037
:1021b4001e4190000281fb00e34179001e81fb0077
:1021c400f44c28006441790002c1610082707800f7
:0c21d4000000fc000080fa000000060083
:020000040000fa
:1021e0000400fa0010079800ff3ffc001e0090005a
:1021f000100078000000e00003003a000000eb004f
:10220000000f7800280037001e009000100f7800a3
:102210001e009000f04090001e0090004040900092
:1022200080cf50001d0032001e00900090009000f2
:102230001e009000604090000080fb000000400005
:1022400000804000900078001e0090000108780097
:102250001e009000604090000004e00004003a007e
:102260001e009000c04090001e0090006140980049
:102270001e009000604090008040e9001e00900029
:10228000614098001e009000704090008040e8007f
:102290001e00900071409800030037001e0090005f
:1022a0008000eb00010878000000fc001e007800b0
:0822b0000080fa0000000600a6
:020000040000fa
:1022b8000800fa0040479800310798000040eb00fa
:1022c800004f78000a0037001e4fe800e081200028
:1022d800104078009e40780080cf500004003900fc
:1022e8005104200080632800ba1902000000000091
:1022f8001e80fb006a00b90000007800e60040007c
:102308000080200000804000904078004e409000ff
:1023180080cf5000ecff39001e80fb006a00b90036
:10232800800078000080200000804000e414020053
:1023380000000000100798001e0090000000e00058
:1023480004003a003105200080632800ba19020011
:1023580000000000be0090001e00900001087800f8
:102368009e40e8001e009000214098001e0090004a
:102378008040eb00314098001e0090000080fa0079
:04238800000006004b
:020000040000fa
:10238c000600fa0010079800210798002e00900014
:10239c000000e000080032001e00900030009000a9
:1023ac000000e000040032001e00900010007800d5
:1023bc00e30f500004003e0051032000405f280052
:1023cc00ba19020000000000ff3ffc001e00900044
:1023dc00400090000000e00011003a000040eb00cb
:1023ec00004f78001e009000304090000004e00088
:1023fc000d003a00e14380001e009000210098007f
:10240c009e009000e14388001e0090003040900038
:10241c008040e8001e009000314098000200370018
:10242c0010c0b300004f78001e009000ae0090006a
:10243c00410098000000fc001e4078000080fa006b
:04244c000000060086
:020000040000fa
:102450000600fa0010079800210798002e0090004f
:1024600010007800e20f50000b003200e50f500022
:102470000c003200e10f50001c003a001e009000da
:10248000a10020006108980098e1a8000040eb003e
:10249000004f78001b0037000040eb00004f780031
:1024a000180037001e009000600890008000e900ce
:1024b0001e009000610898001e00900060089000c7
:1024c0000000e00006003a001e0090008128210074
:1024d0001100980020c0b300004f780009003700b9
:1024e0000040eb00004f7800060037001e0090000f
:1024f000e19a21001100980030c0b300004f78002d
:10250000000000001e4078000080fa000000060075
:020000040000fa
:102510000600fa0010079800210798002e0090008e
:1025200010007800e20f50000b003200e50f500061
:102530000c003200e10f50001c003a001e00900019
:10254000a10020006108980098e1a8000040eb007d
:10255000004f78001b0037000040eb00004f780070
:10256000180037001e009000600890008000e9000d
:102570001e009000610898001e0090006008900006
:102580000000e00006003a001e00900081222100b9
:102590001100980020c0b300004f780009003700f8
:1025a0000040eb00004f7800060037001e0090004e
:1025b000e19a21001100980030c0b300004f78006c
:1025c000000000001e4078000080fa0000000600b5
:020000040000fa
:1025d0000600fa00000f7800110798002207980003
:1025e0002e0090000000e0000b0032001e00900062
:1025f0000000e000080032001e007800400090005b
:102600000000e00004003a001e007800100078008e
:10261000e30f500004003e00b103200000662800d4
:10262000ba19020000000000ff3ffc001e00780005
:10263000ae009000410098001e0078009e009000bf
:10264000310098001e007800304090000004e00047
:102650000a003a00e14380001e0078002100980043
:102660009e007800e14388001e0078003040900012
:102670008040e8001e007800314098000000fc0017
:082680000080fa0000000600d2
:020000040000fa
:102688000400fa00000f7800110798001e00780077
:10269800804890001e0078007040900080cf500065
:1026a80004003900a103200080652800ba1902003f
:1026b800000000001e007800900090001e009000ae
:1026c800808f500005003e001e007800a00090009a
:1026d8001e009000808f500004003100b1032000dc
:1026e80080652800ba19020000000000ff3ffc00c6
:1026f8001e0090009e007800910078000108780084
:102708001e0078009e009000010878001e007800e6
:10271800004890008040e8001e00780001489800ba
:0c2728000000fc000080fa000000060029
:020000040000fa
:102734001000fa00000f7800214798002207980043
:1027440034079800450798005307980066079800d7
:10275400770798002e4090000004e0000600320045
:102764002e409000e84f500003003e005e009000b1
:102774000000e0000400320071062000e05f280041
:10278400ba190200000000003e009000804078006a
:102794001e0178006400410001417800ae00900001
:1027a40096170200000000001e007800ae40900062
:1027b400614898001e00780018170200000000000d
:1027c4001e007800ceb89700e80a0200000000005e
:0827d4000080fa00000006007d
:020000040000fa
:1027dc000600fa0010079800210798000040eb0053
:1027ec00004f78001e009000900090001e0090009a
:1027fc0010007800808f500004003200310320005c
:10280c0080602800ba190200000000001e00900031
:10281c00900090002e009000808f500005003a0030
:10282c0010c0b300004f780010c0b30010479800e0
:10283c00060037001e009000100190002155280062
:10284c001e00900002000100104798001e409000ee
:10285c00e14f5000edff3a001e0090009000780010
:10286c001e009000110098001e4078000080fa00b5
:04287c000000060052
:020000040000fa
:102880000800fa0020079800310798003e009000e9
:10289000f010020000000000100798001e009000d9
:1028a0000000e0001a0032009e0090002e00900010
:1028b000ac0b020000000000ff3ffc001e00900077
:1028c000204090000004e0000d0032001e00900047
:1028d00030409000e14f500004003e0071042000a1
:1028e000e05a2800ba190200000000001e00900003
:1028f000304090008040e9001e0090003140980078
:102900000000fc0010c0b300004f78000200370048
:102910000040eb00004f78001e4078000080fa0075
:0429200000000600ad
:020000040000fa
:102924000400fa00100798001e0090002040900058
:102934000004e00021003200ff3ffc001e00900074
:1029440030409000e14f5000070036001e00900018
:10295400304090008040e9001e0090003140980013
:102964000000fc00150037001e009000204090007d
:10297400004fe9000000fc00e081200010407800d6
:102984009e40780080cf500004003900d10420001c
:1029940080662800ba190200000000001e80fb00b7
:1029a4006a00b900800078000080200000804000a8
:1029b4009e00900044130200000000000080fa0012
:0429c4000000060009
:020000040000fa
:1029c8000400fa0010079800ff3ffc001e0090006a
:1029d80010007800000f78001e0078000000e0006a
:1029e8001b0032001e007800900078001e00900046
:1029f800010878001e009000004890000004e000e4
:102a080004003a008103200000652800ba1902007a
:102a1800000000001e009000004890008040e9007f
:102a28001e009000014898001e00900090489000f9
:102a38001e0090000048900080cf5000040036002f
:102a48001e009000804890001e00900011489800d9
:102a58000000fc001e0078000080fa00000006005c
:020000040000fa
:102a68000600fa0010079800210798001e00900041
:102a7800900078001e00900010009000808f500099
:102a8800040032003103200060582800ba190200ff
:102a9800000000001e00900010017800ae009000b9
:102aa8001e00900002000100004f78001e407800d0
:102ab800e24f50000e003a001e009000100178000e
:102ac800a15528001e009000020001001e00900081
:102ad80010019000615528001e00900002000100be
:102ae8001e009000900090001e00900001087800e1
:082af8000080fa000000060056
:020000040000fa
:102b00000400fa00000f7800110798001e007800fa
:102b1000100090000000e000040032001e00780069
:102b2000100078000000e0000400320031032000b3
:102b300000592800ba190200000000001e007800a9
:102b4000100190009e0090001e007800020001001d
:102b5000e24f500004003200c10320000059280059
:102b6000ba190200000000001e0078001001900059
:102b7000615528001e007800020001001e00780048
:102b8000900090001e007800010878000080fa0094
:042b9000000006003b
:020000040000fa
:102b94000600fa00f218020000000000ff3ffc00eb
:102ba400e0872000104078000004e00019003200a3
:102bb400e0872000104078000080fb000000df0068
:102bc400004078006f4f40001e80fb0080004000f2
:102bd400e0852000008040009000780011079800f4
:102be4000000fc001e0090001c0f0200000000000a
:102bf400200798001e009000ae0090006e060200b0
:102c0400000000002e00900092140200000000005a
:102c1400e2ff3700de19020000000000dfff37008a
:020000040000fa
:102c24000400fa00100798001e009000e04890008d
:102c3400014f78001e4078000004e0000b003200d1
:102c44001e407800e84f500008003e001e80fb0044
:102c540080004000e0852000008040009000780063
:102c64001e009000808f500004003200a105200057
:102c740080572800ba19020000000000ff3ffc0042
:102c84001e80fb0080004000e085200000804000a2
:102c94008000eb00010878000000fc000080fa00ce
:042ca4000000060026
:020000040000fa
:102ca8000400fa00000f7800110798001e00900039
:102cb800e30f500004003c0001032000a05e280040
:102cc800ba190200000000001e0078008000eb0026
:102cd800210098001e0078008000eb003100980069
:102ce8001e0078008000eb00410098001e0078006c
:102cf8008000eb00510098009e0090001e007800b4
:102d0800010878001e0078008040eb002140980000
:102d18001e0078008040eb00314098000080fa00e7
:042d280000000600a1
:020000040000fa
:102d2c007a08000002000000820000004008000049
:102d3c00400800001e000000800000007208000027
:102d4c0004000000800000005e0800001400000079
:102d5c00800000000008000020000000800000003f
:102d6c007608000004000000800000007c080000d1
:102d7c0002000000800000007e080000020000003d
:102d8c0080000000800800000200000082000000ab
:102d9c00ffff000020080000200000008000000061
:042dac000000000023
:020000040000fa
:102db0000600fa00404798004e409000e84f50004f
:102dc00008003e004e4090000080fb008000400064
:102dd000e085200000804000100078000000e00046
:102de00004003a003106200080612800ba19020070
:102df00000000000ff3ffc004e4090000080fb0000
:102e000080004000e0852000008040001000780035
:102e1000404890000080fb008000eb00008fbe0067
:102e20000000fc001e00be000080fa00000006004a
:020000040000fa
:102e30000400fa00100798001e009000e04890007f
:102e4000014f78001e4078000004e0000a003200c4
:102e50001e407800e84f500007003e001e80fb0037
:102e600080004000e08520000080400010007800d5
:102e70000000e000040032006104200080572800b8
:102e8000ba19020000000000ff3ffc001e80fb009a
:102e900080004000e0852000008040009e009000ff
:102ea000010878000000fc000080fa000000060025
:020000040000fa
:102eb0000600fa00404798004e4090000004e000f1
:102ec00005003200e081200010407800ce409000e4
:102ed00080cf500004003600e10420000065280087
:102ee000ba19020000000000ff3ffc004e409000b5
:102ef0000080fb000000e9006a00b90000007800d3
:102f0000e800400000802000008040001040900059
:102f10000080fb008000eb00008fbe000000fc0082
:0c2f20001e00be000080fa000000060049
:020000040000fa
:102f2c000600fa00000f780011079800424798003d
:102f3c001e0078008000eb00010878001e0078006d
:102f4c009e009000110098001e007800ce4090006a
:102f5c00414098001e0078008040eb0051409800e2
:102f6c001e0078008040eb00614098001e00780045
:102f7c00ce409000714098001e007800ce4090002a
:0c2f8c00014898000080fa0000000600d8
:020000040000fa
:102f98000000fa008421ef008e21ef009821ef0055
:102fa800f0782000000c8800f0fe2f00500c8800fc
:102fb800f0332000a00c88005620ef005820ef00c6
:102fc8005a20ef006e20ef007020ef007220ef0013
:102fd8008621ef009021ef009a21ef00f0002000f9
:102fe800400c8800c0202f00900c88007000200042
:0c2ff800e00c88000080fa0000000600d9
:020000040000fa
:103004001400fa0072190200000000004e190200b8
:1030140000000000d218020000000000041a0200a0
:1030240000000000d04380008000eb00811f780086
:103034006033b8008001eb00a400200005002000ec
:103044000e01780011c0b3009a13020000000000c2
:103054008f87e900ca15020000000000ffff370057
:020000040000fa
:103064000000fa0090438000a1438000d2dc2000dd
:103074000289b900020178006002b9008401780075
:1030840003014100d3dc20000300b800010141002a
:103094008200780090438800a14388009043800018
:1030a400a14380004809dd004800de0000007100f3
:0c30b400c808de000080fa0000000600e2
:020000040000fa
:1030c0000400fa00000f7800110798001e00780035
:1030d000a1002000610898001e007800a1002000d7
:1030e000510898009e0078001e0178007000410091
:1030f000a2002000e8120200000000001e0078007c
:10310000812821001100980020c0b3000080fa003f
:0431100000000600b5
:020000040000fa
:103114000400fa0010079800ff3ffc001e00900016
:10312400400090000000e0000600320010c0b30030
:10313400004f78001e0090008000eb0041009800d2
:10314400020037000040eb00004f78000000fc0054
:0c3154001e4078000080fa000000060019
:020000040000fa
:103160000000fa000001eb0060042000710520005f
:103170000310200080497800814978008249780056
:1031800000102300100888000621ef006821ef00de
:103190006a21ef006c21ef000821ef000080fa00a7
:0431a0000000060025
:020000040000fa
:1031a4000200fa0000842000000f78001e0078005e
:1031b400e19a210001087800018621001e007800b0
:1031c400110098009e00780070804000510020009b
:1031d40054160200000000000080fa0000000600ff
:020000040000fa
:1031e4000000fa0000022000e01288005222ef00e2
:1031f400f0c32900c012880031058000f0ff2800c8
:103204000080600000e0a0003005880084e0a90090
:1032140094e0a8005de2a8000080fa000000060027
:020000040000fa
:103224000600fa00000f78001107980022079800a2
:10323400ae0090001e0090000c0e02000000000082
:083244000080fa000000060002
:020000040000fa
:10324c000600fa00000f7800120798002307980078
:10325c009e007800b14388001e009000c043880097
:08326c000080fa0000000600da
:020000040000fa
:103274000400fa0010079800ff3ffc001e009000b5
:10328400c0009000010f78000000fc001e007800d0
:083294000080fa0000000600b2
:020000040000fa
:10329c000000fa0008a1a90098e1a800204d200028
:1032ac000100200084190200000000000080fa00d8
:0432bc000000060008
:020000040000fa
:1032c0000000fa00e043800000f0a7000000ea00e0
:1032d0000000e9004f00de00004078000080fa00a6
:0432e00000000600e4
:020000040000fa
:1032e4000000fa00cc170200000000000a1a0200d5
:1032f40000000000b0180200000000000080fa0086
:0433040000000600bf
:020000040000fa
:103308000400fa00008fbe001e01be009243880030
:0c331800a34388000080fa0000000600bb
:020000040000fa
:103324000200fa00000f78001e0078001216020056
:0c333400000000000080fa00000006000d
:020000040000fa
:103340000000fa00008220008007780080832000bf
:0c335000000188000080fa000000060068
:020000040000fa
:10335c000400fa00000f78001107980010c0b300a9
:08336c000080fa0000000600d9
:020000040000fa
:103374000400fa00000f780011079800ff3ffc00da
:04338400ffff370010
:020000040000fa
:103388000000fa00fe190200000000000080fa00a8
:04339800000006002b
:020000040000fa
:10339c000200fa00000f78000080fa00000006001e
:020000040000fa
:1033ac000200fa00004f78000080fa0000000600ce
:020000040000fa
:1033bc000000fa000000fc000080fa00000006008b
:020000040000fa
:1033cc000000fa00205628000080fa0000000600d9
:020000040000fa
:1033dc000000fa00f05728000080fa0000000600f8
:020000040000fa
:1033ec00000f78009e00780001448800ffff370032
:020000040000fa
:0c33fc000000fa000080fa00000006004b
:020000040000fa
:0c3408000000fa000080fa00000006003e
:020000040000fa
:0c3414000000fa000080fa000000060032
:020000040000fa
:020000040002f8
:04aff000ffff00005f
:020000040000fa
:020000040002f8
:04aff400ffff00005b
:020000040000fa
:020000040002f8
:04aff800bf90000006
:020000040000fa
:020000040002f8
:04affc003f3f0000d3
:00000001FF
