:020000040000fa
:080000000002040000000000f2
:020000040000fa
:040008009003000061
:020000040000fa
:04000c006403000089
:020000040000fa
:040010007c0300006d
:020000040000fa
:040014006e03000077
:020000040000fa
:04001800860300005b
:020000040000fa
:04001c00900300004d
:020000040000fa
:040020009003000049
:020000040000fa
:040024009003000045
:020000040000fa
:040028009003000041
:020000040000fa
:04002c00900300003d
:020000040000fa
:040030009003000039
:020000040000fa
:040034009003000035
:020000040000fa
:040038009003000031
:020000040000fa
:04003c00900300002d
:020000040000fa
:040040009003000029
:020000040000fa
:040044003403000081
:020000040000fa
:040048009003000021
:020000040000fa
:04004c00900300001d
:020000040000fa
:040050009003000019
:020000040000fa
:040054009003000015
:020000040000fa
:040058009003000011
:020000040000fa
:04005c00900300000d
:020000040000fa
:040060009003000009
:020000040000fa
:040064009003000005
:020000040000fa
:040068009003000001
:020000040000fa
:04006c0090030000fd
:020000040000fa
:0400700090030000f9
:020000040000fa
:0400740090030000f5
:020000040000fa
:0400780090030000f1
:020000040000fa
:04007c0090030000ed
:020000040000fa
:0400800090030000e9
:020000040000fa
:0400840090030000e5
:020000040000fa
:0400880090030000e1
:020000040000fa
:04008c0090030000dd
:020000040000fa
:0400900090030000d9
:020000040000fa
:0400940090030000d5
:020000040000fa
:0400980090030000d1
:020000040000fa
:04009c0090030000cd
:020000040000fa
:0400a00090030000c9
:020000040000fa
:0400a40090030000c5
:020000040000fa
:0400a80090030000c1
:020000040000fa
:0400ac0090030000bd
:020000040000fa
:0400b00090030000b9
:020000040000fa
:0400b40090030000b5
:020000040000fa
:0400b80090030000b1
:020000040000fa
:0400bc0090030000ad
:020000040000fa
:0400c00090030000a9
:020000040000fa
:0400c40090030000a5
:020000040000fa
:0400c80090030000a1
:020000040000fa
:0400cc00900300009d
:020000040000fa
:0400d0009003000099
:020000040000fa
:0400d4009003000095
:020000040000fa
:0400d8009003000091
:020000040000fa
:0400dc00900300008d
:020000040000fa
:0400e0009003000089
:020000040000fa
:0400e4009003000085
:020000040000fa
:0400e8009003000081
:020000040000fa
:0400ec00900300007d
:020000040000fa
:0400f0009003000079
:020000040000fa
:0400f4009003000075
:020000040000fa
:0400f8009003000071
:020000040000fa
:0400fc00900300006d
:020000040000fa
:040100009003000068
:020000040000fa
:040104009003000064
:020000040000fa
:040108009003000060
:020000040000fa
:04010c00900300005c
:020000040000fa
:040110009003000058
:020000040000fa
:040114009003000054
:020000040000fa
:040118009003000050
:020000040000fa
:04011c00900300004c
:020000040000fa
:040120009003000048
:020000040000fa
:040124009003000044
:020000040000fa
:040128009003000040
:020000040000fa
:04012c00900300003c
:020000040000fa
:040130009003000038
:020000040000fa
:040134009003000034
:020000040000fa
:040138009003000030
:020000040000fa
:04013c00900300002c
:020000040000fa
:040140009003000028
:020000040000fa
:040144009003000024
:020000040000fa
:040148009003000020
:020000040000fa
:04014c00900300001c
:020000040000fa
:040150009003000018
:020000040000fa
:040154009003000014
:020000040000fa
:040158009003000010
:020000040000fa
:04015c00900300000c
:020000040000fa
:040160009003000008
:020000040000fa
:040164009003000004
:020000040000fa
:040168009003000000
:020000040000fa
:04016c0090030000fc
:020000040000fa
:0401700090030000f8
:020000040000fa
:0401740090030000f4
:020000040000fa
:0401780090030000f0
:020000040000fa
:04017c0090030000ec
:020000040000fa
:0401800090030000e8
:020000040000fa
:0401840090030000e4
:020000040000fa
:0401880090030000e0
:020000040000fa
:04018c0090030000dc
:020000040000fa
:0401900090030000d8
:020000040000fa
:0401940090030000d4
:020000040000fa
:0401980090030000d0
:020000040000fa
:04019c0090030000cc
:020000040000fa
:0401a00090030000c8
:020000040000fa
:0401a40090030000c4
:020000040000fa
:0401a80090030000c0
:020000040000fa
:0401ac0090030000bc
:020000040000fa
:0401b00090030000b8
:020000040000fa
:0401b40090030000b4
:020000040000fa
:0401b80090030000b0
:020000040000fa
:0401bc0090030000ac
:020000040000fa
:0401c00090030000a8
:020000040000fa
:0401c40090030000a4
:020000040000fa
:0401c80090030000a0
:020000040000fa
:0401cc00900300009c
:020000040000fa
:0401d0009003000098
:020000040000fa
:0401d4009003000094
:020000040000fa
:0401d8009003000090
:020000040000fa
:0401dc00900300008c
:020000040000fa
:0401e0009003000088
:020000040000fa
:0401e4009003000084
:020000040000fa
:0401e8009003000080
:020000040000fa
:0401ec00900300007c
:020000040000fa
:0401f0009003000078
:020000040000fa
:0401f4009003000074
:020000040000fa
:0401f8009003000070
:020000040000fa
:0401fc00900300006c
:020000040000fa
:04020800900300005f
:020000040000fa
:04020c00900300005b
:020000040000fa
:040210009003000057
:020000040000fa
:040214009003000053
:020000040000fa
:04021800900300004f
:020000040000fa
:04021c00900300004b
:020000040000fa
:040220009003000047
:020000040000fa
:040224009003000043
:020000040000fa
:04022800900300003f
:020000040000fa
:04022c00900300003b
:020000040000fa
:040230009003000037
:020000040000fa
:040234009003000033
:020000040000fa
:04023800900300002f
:020000040000fa
:04023c00900300002b
:020000040000fa
:040240009003000027
:020000040000fa
:040244009003000023
:020000040000fa
:04024800900300001f
:020000040000fa
:04024c00900300001b
:020000040000fa
:040250009003000017
:020000040000fa
:040254009003000013
:020000040000fa
:04025800900300000f
:020000040000fa
:04025c00900300000b
:020000040000fa
:040260009003000007
:020000040000fa
:040264009003000003
:020000040000fa
:0402680090030000ff
:020000040000fa
:04026c0090030000fb
:020000040000fa
:0402700090030000f7
:020000040000fa
:0402740090030000f3
:020000040000fa
:0402780090030000ef
:020000040000fa
:04027c0090030000eb
:020000040000fa
:0402800090030000e7
:020000040000fa
:0402840090030000e3
:020000040000fa
:0402880090030000df
:020000040000fa
:04028c0090030000db
:020000040000fa
:0402900090030000d7
:020000040000fa
:0402940090030000d3
:020000040000fa
:0402980090030000cf
:020000040000fa
:04029c0090030000cb
:020000040000fa
:0402a00090030000c7
:020000040000fa
:0402a40090030000c3
:020000040000fa
:0402a80090030000bf
:020000040000fa
:0402ac0090030000bb
:020000040000fa
:0402b00090030000b7
:020000040000fa
:0402b40090030000b3
:020000040000fa
:0402b80090030000af
:020000040000fa
:0402bc0090030000ab
:020000040000fa
:0402c00090030000a7
:020000040000fa
:0402c40090030000a3
:020000040000fa
:0402c800900300009f
:020000040000fa
:0402cc00900300009b
:020000040000fa
:0402d0009003000097
:020000040000fa
:0402d4009003000093
:020000040000fa
:0402d800900300008f
:020000040000fa
:0402dc00900300008b
:020000040000fa
:0402e0009003000087
:020000040000fa
:0402e4009003000083
:020000040000fa
:0402e800900300007f
:020000040000fa
:0402ec00900300007b
:020000040000fa
:0402f0009003000077
:020000040000fa
:0402f4009003000073
:020000040000fa
:0402f800900300006f
:020000040000fa
:0402fc00900300006b
:020000040000fa
:040300009003000066
:020000040000fa
:040304009003000062
:020000040000fa
:04030800900300005e
:020000040000fa
:04030c00900300005a
:020000040000fa
:040310009003000056
:020000040000fa
:040314009003000052
:020000040000fa
:04031800900300004e
:020000040000fa
:04031c00900300004a
:020000040000fa
:040320009003000046
:020000040000fa
:040324009003000042
:020000040000fa
:04032800900300003e
:020000040000fa
:04032c00900300003a
:020000040000fa
:040330009003000036
:020000040000fa
:040334009003000032
:020000040000fa
:04033800900300002e
:020000040000fa
:04033c00900300002a
:020000040000fa
:040340009003000026
:020000040000fa
:040344009003000022
:020000040000fa
:04034800900300001e
:020000040000fa
:04034c00900300001a
:020000040000fa
:040350009003000016
:020000040000fa
:040354009003000012
:020000040000fa
:04035800900300000e
:020000040000fa
:04035c00900300000a
:020000040000fa
:040360009003000006
:020000040000fa
:040364009003000002
:020000040000fa
:0403680090030000fe
:020000040000fa
:04036c0090030000fa
:020000040000fa
:0403700090030000f6
:020000040000fa
:0403740090030000f2
:020000040000fa
:0403780090030000ee
:020000040000fa
:04037c0090030000ea
:020000040000fa
:0403800090030000e6
:020000040000fa
:0403840090030000e2
:020000040000fa
:0403880090030000de
:020000040000fa
:04038c0090030000da
:020000040000fa
:0403900090030000d6
:020000040000fa
:0403940090030000d2
:020000040000fa
:0403980090030000ce
:020000040000fa
:04039c0090030000ca
:020000040000fa
:0403a00090030000c6
:020000040000fa
:0403a40090030000c2
:020000040000fa
:0403a80090030000be
:020000040000fa
:0403ac0090030000ba
:020000040000fa
:0403b00090030000b6
:020000040000fa
:0403b40090030000b2
:020000040000fa
:0403b80090030000ae
:020000040000fa
:0403bc0090030000aa
:020000040000fa
:0403c00090030000a6
:020000040000fa
:0403c40090030000a2
:020000040000fa
:0403c800900300009e
:020000040000fa
:0403cc00900300009a
:020000040000fa
:0403d0009003000096
:020000040000fa
:0403d4009003000092
:020000040000fa
:0403d800900300008e
:020000040000fa
:0403dc00900300008a
:020000040000fa
:0403e0009003000086
:020000040000fa
:0403e4009003000082
:020000040000fa
:0403e800900300007e
:020000040000fa
:0403ec00900300007a
:020000040000fa
:0403f0009003000076
:020000040000fa
:0403f4009003000072
:020000040000fa
:0403f800900300006e
:020000040000fa
:0403fc00900300006a
:020000040000fa
:10040000ef9020000e7f22000e0188000000000007
:10041000000020000000e000020032000001200087
:100420002002880014000700bf0007000000e00061
:1004300003003a00c0c5210001002000020037007f
:100440000000200001002000810f70000100320038
:1004500014000700000020000000e000020032004d
:100460000000020000000000881a020000000000e6
:100470000040da000000fe004440a900a040200037
:100480000000e000030032000020200090018800fe
:100490004440a800000006008a1f78008b1f7800e7
:1004a00000000600a1028800800478000000eb0034
:1004b0001f003700e284440054a0b4009905ba003c
:1004c000e284440054a0b4009906ba00e2844400d7
:1004d00054a0b4000006eb00476fde00fd07b20039
:1004e000ae018800636ce10003003a00eaff0700f8
:1004f0000000eb000e003700606ce10008003a00dd
:10050000004deb000a05e800020039003420ec0041
:100510000af0a0008b05e900f9ff3e000400370057
:100520006168e100010032000086eb000b0007006b
:1005300019c7ba001905ba000e04e00003003a001a
:100540000a00e000dbff3a0000000600fe07b200f0
:10055000ae0288008a047800f5ff37000cd0a300b3
:10056000e20f4d001c00390089027800354dba00b9
:100570000a05e800020039003420ec000af0a0006f
:100580008b05e9000f003200254dba000a05e8008e
:10059000020039003420ec000af0a0008b05e900cd
:1005a000080032000c00e0000600320015cdba0051
:1005b0000a05e800020039003420ec000af0a0002f
:1005c0008b05e9008984e80054a0b4000b00e0002a
:1005d000e2ff3a00000006009902ba00055d7800cb
:1005e0008b05e900f7ff3200c82ade00055d7800c0
:1005f0008b05e900f3ff32000c00e000f1ff320050
:1006000019ddba00eeff3700e6220400000000000a
:100610001821040000000000021704000000000080
:100620008416040000000000e21e04000000000028
:1006300054100400000000009611040000000000a7
:10064000ae1b04000000000066180400000000005b
:100650002612040000000000b61204000000000092
:1006600046130400000000003600f800809fbe0022
:10067000829fbe00849fbe00869fbe003200f800ad
:100680003400f80010002000a001880000202000a5
:10069000900188000000fa0084e0a9001a0e020010
:1006a000000000000080fa003400f9003200f90078
:1006b0004f03be004f02be004f01be004f00be0000
:1006c0003600f900004006003600f8008020a9003e
:1006d0000000eb002e230200000000003600f800ae
:1006e000d8220200000000008040a9001000200075
:1006f0002e230200000000003600f8008060a900f0
:10070000200020002e230200000000003600f80028
:100710008080a900300020002e230200000000008d
:100720000040da000000fe000000050080017800b3
:1007300002003700b15978000201e9000200e00030
:08074000fcff3a000000060076
:020000040000fa
:100748000001000002020000030300000303000090
:100758000404000004040000040400000404000071
:100768000505000005050000050500000505000059
:100778000505000005050000050500000505000049
:100788000606000006060000060600000606000031
:100798000606000006060000060600000606000021
:1007a8000606000006060000060600000606000011
:1007b8000606000006060000060600000606000001
:1007c80007070000070700000707000007070000e9
:1007d80007070000070700000707000007070000d9
:1007e80007070000070700000707000007070000c9
:1007f80007070000070700000707000007070000b9
:1008080007070000070700000707000007070000a8
:100818000707000007070000070700000707000098
:100828000707000007070000070700000707000088
:100838000707000007070000070700000707000078
:100848000808000008080000080800000808000060
:100858000808000008080000080800000808000050
:100868000808000008080000080800000808000040
:100878000808000008080000080800000808000030
:100888000808000008080000080800000808000020
:100898000808000008080000080800000808000010
:1008a8000808000008080000080800000808000000
:1008b80008080000080800000808000008080000f0
:1008c80008080000080800000808000008080000e0
:1008d80008080000080800000808000008080000d0
:1008e80008080000080800000808000008080000c0
:1008f80008080000080800000808000008080000b0
:10090800080800000808000008080000080800009f
:10091800080800000808000008080000080800008f
:10092800080800000808000008080000080800007f
:10093800080800000808000008080000080800006f
:100948000001000002040000081000002040000020
:100958008001000002040000081000002040000090
:100968008001000002040000081000002040000080
:100978008001000002040000081000002040000070
:100988008001000002040000081000002040000060
:100998008001000002040000081000002040000050
:1009a8008001000002040000081000002040000040
:1009b8008001000002040000081000002040000030
:1009c80080ff0000fefd0000fbf70000efdf0000e5
:1009d800bf7f0000fefd0000fbf70000efdf000016
:1009e800bf7f0000fefd0000fbf70000efdf000006
:1009f800bf7f0000fefd0000fbf70000efdf0000f6
:100a0800bf7f0000fefd0000fbf70000efdf0000e5
:100a1800bf7f0000fefd0000fbf70000efdf0000d5
:100a2800bf7f0000fefd0000fbf70000efdf0000c5
:100a3800bf7f0000fefd0000fbf70000efdf0000b5
:100a4800bf7f000000000000000000000000000060
:100a58000000000000010000010100000101000089
:100a68000101000001020000020200000202000071
:100a78000202000002030000030300000303000059
:100a88000303000003040000040400000404000041
:100a98000404000004050000050500000505000029
:100aa8000505000005060000060600000606000011
:100ab80006060000060700000707000007070000f9
:100ac80007070000070000005365000067200000ca
:100ad8006f6e00006573000020690000732000003d
:100ae800656e000074650000726900006e670000a2
:100af8002e2e00002e000000536500006720000025
:100b0800746500006e730000206900007320000007
:100b1800656e000074650000726900006e67000071
:100b28002e2e00002e0000005365000067200000f4
:100b3800687500006e7300002069000073200000d3
:100b4800656e000074650000726900006e67000041
:100b58002e2e00002e0000005365000067200000c4
:100b6800746800006f7300002069000073200000a3
:100b7800656e000074650000726900006e67000011
:100b88002e2e00002e000000536500006720000094
:100b98006f6e00006573000020690000732000007c
:100ba8006578000069740000696e0000672e000017
:100bb8002e2e00000053000065670000207400001e
:100bc800656e000073200000697300002065000056
:100bd80078690000746900006e6700002e2e00001e
:100be8002e000000536500006720000068750000b3
:100bf8006e73000020690000732000006578000013
:100c080069740000696e0000672e00002e2e000037
:100c1800005300006567000020740000686f000042
:100c280073200000697300002065000078690000e7
:100c3800746900006e6700002e2e00002e00000070
:100c4800426c0000696e00006b790000204f0000c4
:100c58004e200000656e0000746500007200000000
:100c6800426c0000696e00006b790000204f0000a4
:100c78004e20000065780000697400000042000002
:100c88006c6900006e6b0000792000004f4e000078
:100c980020740000696300006b000000426c0000d3
:100ca800696e00006b790000204f00004646000086
:100cb800206500006e7400006572000000420000ac
:100cc8006c6900006e6b0000792000004f46000040
:100cd80046200000657800006974000000420000aa
:100ce8006c6900006e6b0000792000004f46000020
:100cf8004620000074690000636b000000000000db
:100d080000000000000000000100000000000000da
:100d180002000000000000000300000000000000c6
:100d2800342e0000352e0000303400000000000092
:100d38002e2e00002f620000737000002f6200004a
:100d4800737000002e630000000000007166000050
:100d58005f61000063740000003400002e3500005d
:100d68002e30000034000000416800006f6a000067
:100d7800204d0000435500002e2e00002e0a0000d2
:100d88000000000071660000736d00005f640000e1
:100d9800697300000000000071660000736d0000b8
:100da8005f6900006e6900000000000071680000c3
:100db800736d00005f6400006973000000000000ac
:100dc80071680000736d00005f6900006e690000c3
:100dd80000000000716100005f64000065660000ab
:100de8006572000000000000716100005f7500007e
:100df800737500006261000000000000716500006a
:100e0800715f000066690000666f00000000000066
:100e180071650000715f00006c690000666f00007a
:100e280000000000716600005f7000007370000031
:100e38007562000000000000716d0000705f000026
:100e4800696e000069740000000000007174000001
:100e5800655f0000637400006f720000000000000e
:100e680071740000655f000072610000726d00001f
:100e78000000000071760000616e0000696c0000df
:100e88006c6100000000000071680000736d0000d4
:100e98005f6900006e000000716100005f6600007d
:100ea800696600006f000000716100005f67000064
:100eb800657400005f000000716100005f6c000055
:100ec800696600006f000000716100005f73000038
:100ed8007562000000000000716100005f7500008d
:100ee8007375000062000000716600005f6e00000c
:100ef8006577000000000000716600005f70000068
:100f08006f6f00006c000000716600005f740000e5
:100f1800696300006b000000716d0000705f0000e5
:100f28006765000074000000716d0000705f0000cc
:100f3800707500007400000071740000655f0000a7
:100f4800617200006d000000716600005f670000bc
:040f58006300000032
:020000040000fa
:100f5c001800fa00200f9800310f98002e0890000e
:100f6c00100f78002e089000100090009e0f50007b
:100f7c000400320051032000a06d2800f222020070
:100f8c00000000002e08900090009000310798009f
:100f9c003e019000be0890002e0890000200010057
:100fac00204798002e409000e44f500005003a0076
:100fbc003e019000416828002e08900002000100bc
:100fcc00204798002e409000e34f5000edff320078
:100fdc002e409000e24f500029013a0000c0eb0077
:100fec00304798002e0890001000900040079800a1
:100ffc009e007800510798000d0037001e01780004
:10100c00c16828002e089000020001000004e000d6
:10101c0004003a001e017800416828002e08900058
:10102c00020001002e08900090009000010f780043
:10103c003e0090009e007800808f5000efff3a0039
:10104c00ce009000010f78003e0090009e0f5000e3
:10105c0007003a003e019000c16828002e0890005d
:10106c00020001000040eb0030479800bc00370044
:10107c001e017800416828002e0890000200010033
:10108c002e08900090009000010f78003e00900018
:10109c009e0f500003003a000040eb0030479800d0
:1010ac00af0037003e019000416828002e089000e8
:1010bc00020001002e089000100090009e0f5000be
:1010cc0007003a003e019000c16828002e089000ed
:1010dc00020001000040eb0030479800a0003700f0
:1010ec002e089000900090004e009000808f5000d1
:1010fc0005003a003e019000c16828002e089000bf
:10110c0002000100960037000040eb0040479800b9
:10111c0010c0b300304798009e007800510798002b
:10112c002e08900090009000010f78005e01900056
:10113c00416828002e08900002000100204798000a
:10114c00250037003e4090000040e80030479800f2
:10115c003e4090000000fb00ae0890009100900013
:10116c0000004000000047006800400001087800c3
:10117c002e089000900090003e009000808f500050
:10118c000f003a0010c0b300404798003e4090005a
:10119c00e54f500004003400e1082000a06d280049
:1011ac00f2220200000000003e4090000040e900e6
:1011bc00304798000040eb002047980006003700ad
:1011cc002e08900010019000416828002e08900015
:1011dc0002000100204798002e409000e34f500081
:1011ec00d8ff32004e4090000004e0005c003a0052
:1011fc003e409000e54f500004003400910920005f
:10120c00a06d2800f2220200000000003e019000b8
:10121c00c16828002e08900002000100be4090001a
:10122c004147980010c0b300204798004e409000f2
:10123c000000fb0000004000000047004000900050
:10124c009e0f500008003a000040eb002047980029
:10125c004e4090000040e9003047980000c0eb0081
:10126c0040479800030037004e4090000040e900d2
:10127c00404798004e4090000004e000ebff3d001a
:10128c002e4090000004e0003500320010c0b30086
:10129c00204798001e017800c16828002e08900095
:1012ac00020001000004e00004003a001e01780076
:1012bc00416828002e089000020001002e089000c2
:1012cc0090009000010f7800be40900041479800bc
:1012dc004e4090000000fb00000040000000470062
:1012ec00400090009e0f500008003a004e409000c5
:1012fc000040e9003047980000c0eb0040479800e0
:10130c000040eb0020479800030037004e4090004f
:10131c000040e900404798004e4090000004e00077
:10132c00ebff3d002e4090000004e000d9ff3a0096
:10133c000b0037003e4090000000fb000000400016
:10134c000000470040019000816828002e089000a2
:10135c00020001003e4090000040e9003047980038
:10136c003e4090000004e000f2ff3d00ce009000f3
:10137c00010f78002e0890009e0078001100980054
:10138c00390037000040eb00304798002e089000e1
:10139c0010009000400798002e089000100190005b
:1013ac00416828002e089000020001001000370050
:1013bc003e4090000040e800304798003e409000ce
:1013cc000000fb00ae08900091009000000040006f
:1013dc000000470068004000010878002e089000cb
:1013ec0010019000416828002e08900002000100b6
:1013fc002e089000100090009e0f5000ecff3a0059
:10140c00ce0090002e089000110098003e409000f5
:10141c00e54f500004003400010f2000a06d28009f
:10142c00f2220200000000003e4090000000fb0091
:10143c000000400000004700400190008168280037
:10144c002e089000020001003e4090000040e90090
:10145c00304798003e4090000004e000f2ff3d0051
:10146c00ce009000010f78001e0178000169280061
:10147c002e08900002000100e24f5000c1ff320024
:10148c002e0890001e0878002e0890009e00780010
:0c149c00110098000080fa00000006001b
:020000040000fa
:1014a8000200fa00004f78001e00fb006101b9003d
:1014b80000fd2f00f1ff2f0002004000838048004c
:1014c8002204200003002000820f5000838f580060
:1014d800b5003e0000600100420037004b003700b5
:1014e800520037005b003700630037006c0037009c
:1014f800740037007d003700850037008e00370004
:10150800a9003700a8003700a7003700a600370059
:10151800a5003700a4003700a3003700a200370059
:10152800a1003700a00037009f0037008c0037006b
:101538009d0037009c0037009b0037009a00370059
:101548009900370098003700970037009600370059
:101558009500370094003700930037009200370059
:1015680091003700900037008f0037008e00370059
:101578008d0037008c0037008b0037008a00370059
:101588008900370088003700870037008600370059
:101598008500370084003700830037008200370059
:1015a80081003700800037007f0037007e00370059
:1015b8007d0037007c0037007b0037007a00370059
:1015c8007900370078003700770037007600370059
:1015d8007500370074003700730037007200370059
:1015e80069003700b10c800010ff2f0000806000f8
:1015f800b00c8800110c800030ef2f0000806000d4
:10160800100c88001000200070003700b00c80001b
:101618000020a100b00c8800100c80000030a10050
:10162800100c88001000200068003700b10c800002
:1016380050fe2f0000806000b00c8800110c800064
:1016480070ef2f0000806000100c88001000200050
:101658005e003700b10c800010fe2f000080600093
:10166800b00c8800100c80000030a100100c88001d
:101678001000200055003700b10c8000b0fe2f008c
:1016880000806000b00c8800110c800030ff2f0033
:1016980000806000100c8800100020004b0037000c
:1016a800b10c800010fe2f0000806000b00c880094
:1016b800100c80000020a100100c880010002000f1
:1016c80042003700b10c800010fe2f00008060003f
:1016d800b00c8800110c8000b0ef2f000080600073
:1016e800100c88001000200038003700b10c800072
:1016f80090ff2f0000806000b00c8800100c800064
:101708000030a100100c8800100020002f003700c6
:10171800b10c800010fc2f0000806000b00c880025
:10172800110c800030ef2f0000806000100c880042
:101738001000200025003700b10c800090fe2f001b
:1017480000806000b00c8800110c800030ff2f0072
:1017580000806000100c8800100020001b0037007b
:10176800b10c800050fe2f0000806000b00c880093
:10177800110c8000b0ef2f0000806000100c880072
:101788001000200011003700b00c80000040a100bc
:10179800b00c8800100c80000080a100100c88009c
:1017a8001000200009003700b10c800010ff2f0046
:1017b80000806000b00c8800110c800030ef2f0012
:1017c80000806000100c88000000eb000080fa0028
:0417d8000000060007
:020000040000fa
:1017dc001400fa00000f9800110f9800ea0047005f
:1017ec00020009008018eb00300020002007980050
:1017fc008e089000310798000000eb00000f780075
:10180c006e003700f10020001e80500011002000f7
:10181c000008dd00800078001e0890000080600049
:10182c0000f0a7000000ea000000ea004f00de0014
:10183c0040079800ae009000110798001700370081
:10184c00ea0047001e009000008040001040780025
:10185c00804078006a0147001e00900000004100a3
:10186c0010407800e44f50000200340030c0b30048
:10187c00010037000040eb0000c0400080407800c1
:10188c006a0147001e0090000000410001487800ea
:10189c001e0090000000e800100798001e00900049
:1018ac00e40f5000e6ff3400ea0047002e009000e1
:1018bc000080400010407800e74f500003003400d7
:1018cc002e0090000000e90020079800ae00900068
:1018dc001107980028003700ea0047001e0090000e
:1018ec0000804000104078000000fb000000400029
:1018fc00804078006a0147001e0090000000410003
:10190c0001487800ea0047001e009000008040006b
:10191c0010407800ef4060006a0147001e00900004
:10192c000000410001487800ea0047001e009000ca
:10193c0000804000904078001e0090000000e800fd
:10194c00000047002049900010c0b300e74f510041
:10195c0001003c000040eb0080c070006a014700b1
:10196c001e00900000004100014878001e0090000d
:10197c000000e800100798001e009000e30f5000d4
:10198c00d5ff34006e4890000000fb0000004000c2
:10199c0000407800604f98006e4890006f406000e7
:1019ac00604f9800ee4890004e0090000040780088
:1019bc0000c07000604f98001e0fe8001e007800f9
:1019cc00ef0f50008fff34000000eb001007980061
:1019dc000d0037001e00900063004000be00900018
:1019ec00008040009e009000e480100081004700c1
:1019fc00a14890000143b000014878001e009000ff
:101a0c000000e800100798001e009000e40f500042
:0c1a1c00f0ff34000080fa00000006001b
:020000040000fa
:101a28001000fa0030079800410798005207980004
:101a380063079800644f98004e0090000000e00093
:101a48000c0032005e019000ee01900010002000b2
:101a580001002000800f5100818f590005003600d9
:101a68006e48900080c0e8006e48900080cf50001b
:101a780004003e00d103200000722800f222020078
:101a8800000000003e009000ce00900001087800a1
:101a98003e00900021c0b300614098001000200073
:101aa8000100200010079800210798000b0037005c
:101ab8003e0090006040900080c0e8003e0090002a
:101ac800614098001e009000ae0090006100400048
:101ad800e080480010079800210798003e00900019
:101ae800e04090006e48900080cf5000f0ff390031
:101af8003e009000e0409000614f98006e489000d2
:101b08000081fb008001eb005e009000ee00900079
:101b1800800f5100818f590004003600b104200065
:101b280000722800f2220200000000006e489000b7
:101b38000080fb008000eb005e019000ee01900049
:101b480000005100818059005007980061079800f3
:101b58003e00900011c0b300714098003e00900014
:101b680010007800000f7800150037001e00900064
:101b7800000040009e0040001e0078000108780028
:101b88001e007800100f78006e4890000080fb005f
:101b98008000eb005e019000ee0190000000510013
:101ba8008180590050079800610798003e00900016
:101bb800704090008040e8003e009000714098001e
:101bc8006e4890000081fb008001eb005e009000f1
:101bd800ee009000800f5100818f5900e3ff36001e
:101be8001e0078008000eb00010878003e0090009d
:101bf800f04090003e009000014898003e009000a0
:101c0800f04090003e009000114898003e0090007f
:101c1800ce009000110098003e0090009e007800d1
:0c1c2800210098000080fa000000060077
:020000040000fa
:101c34000400fa000000eb0010079800ff3ffc00ce
:101c440041488000010f78005a0037001e007800d8
:101c5400400090000000e00019003a004048800075
:101c64009e007800808f500004003a001e00780027
:101c740020009000404888000b0037001e009000b0
:101c84000000e00004003a0051042000807828009d
:101c9400f2220200000000001e007800a000900064
:101ca4001e009000210098001e0078003040900033
:101cb4008040e9001e007800314098003a00370067
:101cc4001e007800400090008000e9001e007800ab
:101cd400410098001e007800400090000000e000e1
:101ce4002f003a001e007800500090000000e00031
:101cf400040032001e007800d00090001e0078001e
:101d0400410098000000fc009e0078001e0078004e
:101d140030009000f810020000000000ff3ffc00bb
:101d24001e007800400090000000e00019003a0016
:101d3400404880009e007800808f500004003a00e4
:101d44001e00780020009000404888000b003700f7
:101d54001e0090000000e00004003a00810620000c
:101d640080782800f2220200000000001e007800a3
:101d7400a00090001e009000210098001e00780032
:101d8400304090008040e9001e0078003140980007
:101d9400050037009e007800110798000200370004
:101da4009e007800110798001e007800a0009000a3
:101db400010f78001e0078000000e000a3ff3a0045
:0c1dc4000000fc000080fa000000060097
:020000040000fa
:101dd0001400fa00000f9800110f98000e089000f0
:101de000100f78000e089000100090000000e00036
:101df00004003200602e22009e007800808f500088
:101e00000400320041032000406e2800f22202004c
:101e1000000000000e089000100190009e08900045
:101e20000e08900002000100e24f50000400320052
:101e300071032000406e2800f22202000000000022
:101e40000040eb00204798000e0890001000900022
:101e5000200798000e0890001001900041682800ab
:101e60000e08900002000100100037002e40900084
:101e70000040e800204798002e4090000000fb0042
:101e80008e08900091009000000040000000470084
:101e900064004000010878000e08900010019000d6
:101ea000416828000e089000020001000e08900012
:101eb000100090009e0f5000ecff3a00ae00900022
:101ec0000e089000110098002e409000e54f500041
:101ed00004003400c1042000406e2800f2220200f9
:101ee000000000002e4090000000fb0000004000b9
:101ef0000000470020019000816828000e08900033
:101f0000020001002e4090000040e90020479800a8
:101f10002e4090000004e000f2ff3d00ae00900073
:101f2000010f78001e017800016928000e0890005a
:101f300002000100e24f5000c1ff32000e08900085
:101f40001e0878000e0890009e007800110098008e
:081f50000080fa000000060009
:020000040000fa
:101f58000400fa00000f780011079800ff3ffc000a
:101f68001e009000204090000004e00005003200b0
:101f78001e009000304090008040e8001e00900055
:101f8800314098001e007800200090000000e0001a
:101f98000e003a001e0078009e0090002100980074
:101fa800a0902000904078001e00780060489000c3
:101fb8000080fb00424a28006240780080c0700020
:101fc800a090200001487800320037001e007800f9
:101fd800304890000004e00004003a00a10420000a
:101fe80000762800f2220200000000001e0078009f
:101ff800204890008040e8001e00780021489800a2
:102008001e007800a04890001e007800004890004c
:1020180080cf500003003a001e0078008040eb009b
:10202800214898001e007800b00090001e0078003b
:10203800204890000080fb00000040000080400025
:102048009e007800a1009000010878001e0078002a
:102058009e009000210098001e00780030489000f3
:102068008040e9001e007800314898001e00780082
:10207800c04890001e0078003048900080cf500083
:10208800040036001e007800b04890001e0078005a
:10209800414898000000fc000080fa00000006009b
:020000040000fa
:1020a8000600fa0010079800210798002e009000fb
:1020b80010007800e60f500034003200e60f5000a0
:1020c80007003e00e20f500018003200e30f5000f6
:1020d80019003200e10f50000800320039003700c3
:1020e800ea0f50001a003200eb0f50001e003200b9
:1020f800e70f50002b003200320037001e0090001e
:1021080021002000510898009e0090001e009000b9
:102118007000400022002000521b02000000000056
:102128000040eb00004f78002c0037000040eb0027
:10213800004f7800290037001e0090006119210027
:102148001100980020c0b300004f7800230037002a
:102158001e009000e1ba21001100980020c0b300d1
:10216800004f78001d0037002e00900020009000de
:10217800800078001e009000ee0b020000000000b6
:102188000040eb00004f7800140037001e0090005c
:10219800618621001100980020c0b300004f78002c
:1021a8000e0037001e0090007c0040006c210200e9
:1021b80000000000104798000040eb00004f780036
:1021c800060037001e009000612e220011009800c2
:1021d80030c0b300004f7800000000001e407800b7
:0821e8000080fa00000006006f
:020000040000fa
:1021f0000400fa00000f780011079800ff3ffc0070
:102200001e009000204090000004e0000500320015
:102210001e009000304090008040e8001e009000ba
:10222000314098001e007800200090000000e0007f
:102230000e003a001e0078009e00900021009800d9
:10224000a0902000904078001e0078006048900028
:102250000080fb00424a28006240780080c0700085
:10226000a0902000014878002d0037001e00780063
:10227000304890000004e00004003a0011052000fe
:1022800000752800f2220200000000001e00780005
:10229000b00090001e007800104890000080fb0005
:1022a00000004000008040009e009000010878007f
:1022b0001e007800104890000004e00004003a007e
:1022c0001e007800804890001e0078001148980099
:1022d0001e007800104890008040e9001e00780041
:1022e000114898001e007800304890008040e900b6
:1022f0001e007800314898001e007800c048900009
:102300001e0078003048900080cf50000400360056
:102310001e007800b04890001e00780041489800e8
:0c2320000000fc000080fa000000060035
:020000040000fa
:10232c000600fa0010079800210798002e00900074
:10233c0010007800e20f500011003200e50f500041
:10234c0030003200e10f500034003a0082012000ce
:10235c008156280000832000960302000000000034
:10236c001e00900000689000540a0200000000005b
:10237c008de1a9000040eb00004f78002d003700e4
:10238c0072012000815c280000832000960302006b
:10239c0000000000c10c8000e00320000100700070
:1023ac00b00c8800210c8000c018200001007000c7
:1023bc00100c8800710c800000802a000100700055
:1023cc00600c8800050037001e00900040689000eb
:1023dc008040e9001e009000416898001e009000ab
:1023ec00406890000004e000f7ff3a001e009000e7
:1023fc0001c5b300416898000040eb00004f780025
:10240c000c0037001e009000612221001100980082
:10241c0020c0b300004f7800060037001e0090006b
:10242c00410521001100980030c0b300004f780026
:10243c00000000001e4078000080fa00000006003a
:020000040000fa
:10244c000600fa0010079800210798002e00900053
:10245c0010007800e20f500011003200e50f500020
:10246c0030003200e10f500034003a0082012000ad
:10247c000158280000832000960302000000000091
:10248c001e00900010689000540a0200000000002a
:10249c0082e1a9000040eb00004f78002d003700ce
:1024ac0072012000815c280000832000960302004a
:1024bc0000000000c10c8000e0032000010070004f
:1024cc00b00c8800210c8000c018200001007000a6
:1024dc00100c8800710c800000802a000100700034
:1024ec00600c8800050037001e00900040689000ca
:1024fc008040e9001e009000416898001e0090008a
:10250c00406890000004e000f7ff3a001e009000c5
:10251c0001c5b300416898000040eb00004f780003
:10252c000c0037001e009000612b21001100980058
:10253c0020c0b300004f7800060037001e0090004a
:10254c00410521001100980030c0b300004f780005
:10255c00000000001e4078000080fa000000060019
:020000040000fa
:10256c000600fa0010079800210798002e00900032
:10257c0010007800e20f500011003200e50f5000ff
:10258c0030003200e10f500034003a00820120008c
:10259c0081592800008320009603020000000000ef
:1025ac001e00900020689000540a020000000000f9
:1025bc008da1a9000040eb00004f78002d003700e2
:1025cc0072012000615f2800008320009603020046
:1025dc0000000000c10c8000e0032000010070002e
:1025ec00b00c8800210c8000c01820000100700085
:1025fc00100c8800710c800000802a000100700013
:10260c00600c8800050037001e00900040689000a8
:10261c008040e9001e009000416898001e00900068
:10262c00406890000004e000f7ff3a001e009000a4
:10263c0001c5b300416898000040eb00004f7800e2
:10264c000c0037001e00900061342100110098002e
:10265c0020c0b300004f7800060037001e00900029
:10266c00410521001100980030c0b300004f7800e4
:10267c00000000001e4078000080fa0000000600f8
:020000040000fa
:10268c000600fa0010079800210798002e00900011
:10269c0010007800e20f500011003200e50f5000de
:1026ac0030003200e10f500034003a00820120006b
:1026bc00015b28000083200096030200000000004c
:1026cc001e00900030689000540a020000000000c8
:1026dc008d61a9000040eb00004f78002d00370001
:1026ec0072012000d16028000083200096030200b4
:1026fc0000000000c10c8000e0032000010070000d
:10270c00b00c8800210c8000c01820000100700063
:10271c00100c8800710c800000802a0001007000f1
:10272c00600c8800050037001e0090004068900087
:10273c008040e9001e009000416898001e00900047
:10274c00406890000004e000f7ff3a001e00900083
:10275c0001c5b300416898000040eb00004f7800c1
:10276c000c0037001e009000611921001100980028
:10277c0020c0b300004f7800060037001e00900008
:10278c00410521001100980030c0b300004f7800c3
:10279c00000000001e4078000080fa0000000600d7
:020000040000fa
:1027ac000600fa00200798002e009000e0489000e8
:1027bc00214798002e4090000004e0000c003200ed
:1027cc002e409000e84f500009003e002e40900033
:1027dc000080fb0080004000808e200000804000c4
:1027ec00900078002e009000808f50000400320082
:1027fc0051032000806f2800f2220200000000002c
:10280c002e4090000080fb0061522800614178004e
:10281c003247980040002000000f7800210037005c
:10282c00ff3ffc00014880001e00780080804000c3
:10283c003e4090000080fb00e14078002e4090006c
:10284c000080fb00424a28006240780000c0600013
:10285c000004e00011003200014880001e007800e6
:10286c00808040003e4090000080fb0003488000c8
:10287c001e017800828141003e4190000281fb00e4
:10288c00e34179002e4190000281fb00544e280058
:10289c006441790002c16100827078000000fc0084
:1028ac001e0fe800104880009e007800808f5000ba
:0c28bc00dbff35000080fa000000060081
:020000040000fa
:1028c8000400fa00000f780011079800ff3ffc0091
:1028d8001e009000204090000004e0000500320037
:1028e8001e009000304090008040e8001e009000dc
:1028f800314098001e007800100078000000e000c9
:102908002f0032001e007800704090000004e000a4
:1029180004003a0041042000c0702800f22202009e
:10292800000000001e007800604090008040e80031
:102938001e007800614098001e007800e04090007a
:102948001e0078004040900080cf500003003a00fd
:102958001e0078008040eb00614098001e0078005f
:10296800900090001e007800604090000080fb00fe
:1029780000004000008040009e0078009100780030
:10298800010878001e007800704090008040e9003f
:102998001e007800714098001e0078008048900062
:1029a8001e0078007040900080cf50000400360070
:1029b8001e007800f04090001e0078000148980042
:1029c8001e0078009e009000010878000000fc00be
:0829d8000080fa000000060077
:020000040000fa
:1029e0000400fa00000f780011079800ff3ffc0078
:1029f0001e009000204090000004e000050032001e
:102a00001e009000304090008040e8001e009000c2
:102a1000314098001e007800100078000000e000af
:102a200004003a001e0078009e0090000108780023
:102a30002d0037001e007800704090000004e00078
:102a400004003a007104200020702800f2220200e5
:102a5000000000001e007800900090001e0078002a
:102a6000504090000080fb000000400000804000cb
:102a70009e009000010878001e00780050409000f1
:102a80000004e00004003a001e007800c0409000fe
:102a90001e007800514098001e00780050409000c1
:102aa0008040e9001e007800514098001e00780028
:102ab000704090008040e9001e007800714098004e
:102ac0001e007800804890001e0078007040900042
:102ad00080cf5000040036001e007800f0409000c7
:102ae0001e007800014898000000fc000080fa00f9
:042af00000000600dc
:020000040000fa
:102af4000400fa00100798001e009000900078006f
:102b040010488000808f50000400390081032000a9
:102b140060712800f222020000000000ff3ffc0068
:102b24001e009000204090000004e00005003200e8
:102b34001e009000304090008040e8001e0090008d
:102b4400314098000000fc00014880001e00900005
:102b54001000780000804000104f78001f003700fc
:102b64001e80fb000000df00004078006f40400042
:102b7400104798001e4090000080fb00514e280032
:102b8400614078001e4f60001e4090000080fb00f2
:102b940080004000808e20000080400010007800fb
:102ba4000000e00004003a00f104200060712800f5
:102bb400f2220200000000001e4090000080fb0092
:102bc40080004000808e20000080400010007800cb
:102bd4009e009000f8100200000000001e407800e3
:102be4000004e000deff3a001e009000aa1d02006f
:0c2bf400000000000080fa000000060055
:020000040000fa
:102c00000400fa0010079800ff3ffc001e0090002f
:102c1000200090000000e00004003a007103200052
:102c200080752800f2220200000000001e009000c3
:102c3000a0009000010f78001e009000b0489000a6
:102c40001e0090000048900080cf50001d00320010
:102c50001e009000b00090001e00900020489000e0
:102c60000080fb00000040000080400090007800e1
:102c70001e009000210098001e0090002048900047
:102c80000004e00004003a001e009000804890001c
:102c90001e009000214898001e00900020489000df
:102ca0008040e9001e009000214898001e0090001e
:102cb000304890008040e8001e00900031489800a5
:102cc0000d0037001e0090008000eb0021009800ee
:102cd000a0902000904078001e0090006048900076
:102ce0000080fb00524e28006240780080c06000e7
:102cf000a0902000014878000000fc001e00780031
:082d00000080fa00000006004b
:020000040000fa
:102d08000600fa0010079800210798002e0090008e
:102d180010007800e20f500010003200e50f50005c
:102d280016003200e10f50002b003a00020120008b
:102d380041622800c08620009603020000000000bf
:102d48001e009000a1002000610898008521a800bd
:102d58000040eb00004f780025003700f20020000b
:102d680041632800c086200096030200000000008e
:102d78000040eb00004f78001d003700f2002000f3
:102d880031642800c086200096030200000000007d
:102d98001e009000600890008000e9001e0090006e
:102da800610898001e009000600890000000e00094
:102db80006003a001e0090002170210011009800c2
:102dc80020c0b300004f7800090037000040eb0036
:102dd800004f7800060037001e009000612e220088
:102de8001100980030c0b300004f780000000000c8
:0c2df8001e4078000080fa000000060079
:020000040000fa
:102e04000600fa0010079800210798002e00900091
:102e140010007800e20f500010003200e50f50005f
:102e240016003200e10f50002b003a00120120007e
:102e340021652800c08620009603020000000000df
:102e44001e009000a1002000610898008521a900bf
:102e54000040eb00004f78002500370002012000fd
:102e640031662800c086200096030200000000009e
:102e74000040eb00004f78001d00370002012000e5
:102e840031672800c086200096030200000000007d
:102e94001e009000600890008000e9001e00900071
:102ea400610898001e009000600890000000e00097
:102eb40006003a001e0090004168210011009800ad
:102ec40020c0b300004f7800090037000040eb0039
:102ed400004f7800060037001e009000612e22008b
:102ee4001100980030c0b300004f780000000000cb
:0c2ef4001e4078000080fa00000006007c
:020000040000fa
:102f00000a00fa00000f78001207980023079800c3
:102f10003407980045079800608c20001040780026
:102f2000e24f5000040036007103200000782800b2
:102f3000f222020000000000608c200010407800a7
:102f40000004e00012003200608c20001040780085
:102f50000080fb000000e9006a00b9000000780072
:102f6000e6004000808a2000008040009040780009
:102f70003e0090000040780080cf500004003900ef
:102f8000b103200000782800f222020000000000b7
:102f90003e00900000417800608c200010407800d6
:102fa0000080fb006a00b90080007800808a200061
:102fb00000804000024278001e019000ae019000a7
:102fc0009e007800140d020000000000608c2000bc
:102fd000104078008040e800608c200001487800b4
:082fe0000080fa000000060069
:020000040000fa
:102fe8000000fa008421ef008e21ef009821ef0005
:102ff80030402000000c8800f07a2500500c880032
:1030080010302000a00c88005620ef005820ef0058
:103018005a20ef006e20ef007020ef007220ef00c2
:1030280000082000300c880000802a00800c8800ee
:103038009a21ef0030002000400c8800c0202500b5
:10304800900c880010002000e00c88000108800027
:10305800f00b200000816000600420007105200052
:10306800031020008049780081497800824978005f
:10307800811d800000fc2f00008060005000b3001c
:10308800801d8800e11e800000fc2f000080600089
:103098003000b300e01e88000008800000017800be
:1030a8000260a000600420007105200003102000c9
:1030b8008049780081497800824978000080fa00c8
:0430c80000000600fe
:020000040000fa
:1030cc000600fa0010079800210798002e009000c7
:1030dc0010007800e20f50001f003200e80f500083
:1030ec0020003200e10f500024003a001e00900036
:1030fc00813e2000311098009e0090001e00900030
:10310c007c004000823e2000521b020000000000a8
:10311c00c10c8000e003200001007000b00c88009e
:10312c00210c8000c018200001007000100c8800d9
:10313c00710c800000802a0001007000600c880077
:10314c001e00900001c5b300416898000040eb00e0
:10315c00004f78000f0037000040eb00004f780064
:10316c000c0037001e00900061192100110098001e
:10317c0020c0b300004f7800060037001e009000fe
:10318c00410521001100980030c0b300004f7800b9
:10319c00000000001e4078000080fa0000000600cd
:020000040000fa
:1031ac000600fa0010079800210798001e009000f6
:1031bc00e0489000014f78001e80fb00615228000f
:1031cc0061417800124798002e009000e30f5000e8
:1031dc001200340010488000ae009000808f500028
:1031ec000e003d001e4078000004e0000b00320091
:1031fc001e407800e84f500008003e001e80fb0087
:10320c0080004000808e20000080400090007800fc
:10321c001e009000808f50000400320071032000cb
:10322c0080762800f222020000000000ff3ffc0024
:10323c00014880002e009000808040001e409000cd
:10324c000080fb00034880002e0190008281410029
:10325c001e4190000281fb00e34179001e81fb00be
:10326c00444a28006441790002c1710082707800e0
:0c327c000000fc000080fa0000000600ca
:020000040000fa
:103288000600fa0010079800210798001e00900019
:10329800e0489000014f78001e80fb006152280032
:1032a80061417800124798002e009000e30f50000b
:1032b8001200340010488000ae009000808f50004b
:1032c8000e003d001e4078000004e0000b003200b4
:1032d8001e407800e84f500008003e001e80fb00aa
:1032e80080004000808e2000008040009000780020
:1032f8001e009000808f50000400320071032000ef
:1033080000772800f222020000000000ff3ffc00c6
:10331800014880002e009000808040001e409000f0
:103328000080fb00034880002e019000828141004c
:103338001e4190000281fb00e34179001e81fb00e1
:10334800544e28006441790002c1610082707800ff
:0c3358000000fc000080fa0000000600ed
:020000040000fa
:103364000400fa0010079800ff3ffc001e009000c4
:10337400100078000000e00003003a000000eb00b9
:10338400000f7800280037001e009000100f78000e
:103394001e009000f04090001e00900040409000fd
:1033a40080cf50001d0032001e009000900090005d
:1033b4001e009000604090000080fb000000400070
:1033c40000804000900078001e0090000108780002
:1033d4001e009000604090000004e00004003a00e9
:1033e4001e009000c04090001e00900061409800b4
:1033f4001e009000604090008040e9001e00900094
:10340400614098001e009000704090008040e800e9
:103414001e00900071409800030037001e009000c9
:103424008000eb00010878000000fc001e0078001a
:083434000080fa000000060010
:020000040000fa
:10343c000800fa0040479800310798000040eb0064
:10344c00004f78000a0037001e4fe800608c200007
:10345c00104078009e40780080cf50000400390066
:10346c005104200080772800f222020000000000a6
:10347c001e80fb006a00b90000007800e6004000e6
:10348c00808a200000804000904078004e409000e0
:10349c0080cf5000ecff39001e80fb006a00b900a1
:1034ac0080007800808a200000804000fc1d020013
:1034bc0000000000100798001e0090000000e000c3
:1034cc0004003a003105200080772800f222020027
:1034dc0000000000be0090001e0090000108780063
:1034ec009e40e8001e009000214098001e009000b5
:1034fc008040eb00314098001e0090000080fa00e4
:04350c0000000600b5
:020000040000fa
:103510000200fa00806b2800000f780046220200ab
:1035200000000000050037001e0078001040780001
:103530002e220200000000001e0fe8001e0078008e
:10354000104078000004e000f7ff3a0098220200e3
:103550000000000092210200000000004221020051
:10356000000000004423020000000000204880000a
:103570008000eb00811f78006033b8008001eb0011
:10358000a4002000050020000288200011c0b30024
:10359000b21c0200000000008f87e9003048800064
:1035a0008000eb00811f78006033b8008001eb00e1
:1035b000a4002000050020004289200031c0b30093
:1035c000b21c0200000000008f87e9002a1f0200e1
:1035d000000000000080eb000080fa000000060000
:020000040000fa
:1035e0000600fa0010079800210798002e009000ae
:1035f0000000e000080032001e0090003000900043
:103600000000e000040032001e009000100078006e
:10361000e30f500004003e005103200040732800d7
:10362000f222020000000000ff3ffc001e0090009c
:10363000400090000000e00011003a000040eb0064
:10364000004f78001e009000304090000004e00021
:103650000d003a00414880001e00900021009800b3
:103660009e009000414888001e009000304090006d
:103670008040e8001e0090003140980002003700b2
:1036800010c0b300004f78001e009000ae00900004
:10369000410098000000fc001e4078000080fa0005
:0436a0000000060020
:020000040000fa
:1036a4000600fa00000f780011079800220798001e
:1036b4002e0090000000e0000b0032001e0090007d
:1036c4000000e000080032001e0078004000900076
:1036d4000000e00004003a001e00780010007800aa
:1036e400e30f500004003e00b1032000007a2800dc
:1036f400f222020000000000ff3ffc001e007800e0
:10370400ae009000410098001e0078009e009000da
:10371400310098001e007800304090000004e00062
:103724000a003a00414880001e00780021009800f9
:103734009e007800414888001e00780030409000c8
:103744008040e8001e007800314098000000fc0032
:083754000080fa0000000600ed
:020000040000fa
:10375c000600fa0010079800210798002e00900030
:10376c0010007800e20f500013003200e90f5000f7
:10377c0014003200e10f500018003a00c10c800018
:10378c00e003200001007000b00c8800210c8000c8
:10379c00c018200001007000100c8800710c800013
:1037ac0000802a0001007000600c88000040eb00d3
:1037bc00004f78000f0037000040eb00004f7800fe
:1037cc000c0037001e0090004105210011009800ec
:1037dc0020c0b300004f7800060037001e00900098
:1037ec00612e22001100980030c0b300004f780009
:1037fc00000000001e4078000080fa000000060067
:020000040000fa
:10380c000400fa00000f7800110798001e007800e1
:10381c00804890001e0078007040900080cf5000cf
:10382c0004003900a103200080792800f222020054
:10383c00000000001e007800900090001e00900018
:10384c00808f500005003e001e007800a000900004
:10385c001e009000808f500004003100b103200046
:10386c0080792800f222020000000000ff3ffc00db
:10387c001e0090009e0078009100780001087800ee
:10388c001e0078009e009000010878001e00780051
:10389c00004890008040e8001e0078000148980025
:0c38ac000000fc000080fa000000060094
:020000040000fa
:1038b8000409000002000000820000004e08000019
:1038c8004e0800003200000080000000fc080000e4
:1038d800040000008000000006090000020000004b
:1038e8008200000000080000000800004e000000f0
:1038f80080000000e80800001400000080000000bc
:10390800a808000020000000800000000009000056
:103918000400000080000000080900000200000008
:10392800800000000a09000002000000800000007a
:103938000c0900000200000082000000ffff0000e8
:10394800c808000020000000800000008008000077
:0c395800280000008000000000000000bb
:020000040000fa
:103964001000fa00000f7800214798002207980001
:103974003407980045079800530798006607980095
:10398400770798002e4090000004e0000600320003
:103994002e409000e84f500003003e005e0090006f
:1039a4000000e0000400320071062000e0732800eb
:1039b400f2220200000000003e00900080407800e7
:1039c4001e0178006400410001417800ae009000bf
:1039d400b4200200000000001e007800ae409000f9
:1039e400614898001e0078003620020000000000a4
:1039f4001e007800ceb89700e80e02000000000018
:083a04000080fa00000006003a
:020000040000fa
:103a0c000600fa0010079800210798000040eb0010
:103a1c00004f78001e009000900090001e00900057
:103a2c0010007800808f5000040032003103200019
:103a3c0080742800f2220200000000001e0090009a
:103a4c00900090002e009000808f500005003a00ee
:103a5c0010c0b300004f780010c0b300104798009e
:103a6c00060037001e0090001001900041682800ed
:103a7c001e00900002000100104798001e409000ac
:103a8c00e14f5000edff3a001e00900090007800ce
:103a9c001e009000110098001e4078000080fa0073
:043aac000000060010
:020000040000fa
:103ab0000800fa0020079800310798003e009000a7
:103ac000b219020000000000100798001e009000cc
:103ad0000000e0001a0032009e0090002e009000ce
:103ae000ac0f020000000000ff3ffc001e00900031
:103af000204090000004e0000d0032001e00900005
:103b000030409000e14f500004003e00710420005e
:103b1000e06e2800f2220200000000001e0090006b
:103b2000304090008040e9001e0090003140980035
:103b30000000fc0010c0b300004f78000200370006
:103b40000040eb00004f78001e4078000080fa0033
:043b5000000006006b
:020000040000fa
:103b54000400fa00100798001e0090002040900016
:103b64000004e00021003200ff3ffc001e00900032
:103b740030409000e14f5000070036001e009000d6
:103b8400304090008040e9001e00900031409800d1
:103b94000000fc00150037001e009000204090003b
:103ba400004fe9000000fc00608c20001040780009
:103bb4009e40780080cf500004003900d1042000da
:103bc400807a2800f2220200000000001e80fb0020
:103bd4006a00b90080007800808a200000804000dc
:103be4009e009000061c0200000000000080fa0005
:043bf40000000600c7
:020000040000fa
:103bf8000400fa0010079800ff3ffc001e00900028
:103c080010007800000f78001e0078000000e00027
:103c18001b0032001e007800900078001e00900003
:103c2800010878001e009000004890000004e000a1
:103c380004003a008103200000792800f2220200e3
:103c4800000000001e009000004890008040e9003d
:103c58001e009000014898001e00900090489000b7
:103c68001e0090000048900080cf500004003600ed
:103c78001e009000804890001e0090001148980097
:103c88000000fc001e0078000080fa00000006001a
:020000040000fa
:103c98000600fa0010079800210798001e009000ff
:103ca800900078001e00900010009000808f500057
:103cb8000400320031032000606c2800f222020068
:103cc800000000001e00900010017800ae00900077
:103cd8001e00900002000100004f78001e4078008e
:103ce800e24f50000e003a001e00900010017800cc
:103cf800c16828001e009000020001001e0090000c
:103d080010019000816828001e0090000200010048
:103d18001e009000900090001e009000010878009e
:083d28000080fa000000060013
:020000040000fa
:103d30000400fa00000f7800110798001e007800b8
:103d4000100090000000e000040032001e00780027
:103d5000100078000000e000040032003103200071
:103d6000006d2800f2220200000000001e00780012
:103d7000100190009e0090001e00780002000100db
:103d8000e24f500004003200c1032000006d280003
:103d9000f2220200000000001e00780010019000d6
:103da000816828001e007800020001001e007800d3
:103db000900090001e007800010878000080fa0052
:043dc00000000600f9
:020000040000fa
:103dc4000400fa00000f780011079800c10c80006d
:103dd400e003200001007000b00c8800210c80007a
:103de400c018200001007000100c8800710c8000c5
:103df40000802a0001007000600c88001e0078001a
:103e040001c5b300416898001e00780091c3b30057
:103e1400016898001e00780051c3b300116898002f
:103e24001e00780061c3b300216898001e0078006a
:103e340041c3b300316898001e0078004105210099
:103e44001100980020c0b3000080fa0000000600b2
:020000040000fa
:103e54000600fa00f221020000000000ff3ffc000f
:103e6400a0902000104078000004e0001900320007
:103e7400a0902000104078000080fb000000df00cc
:103e8400004078006f4f40001e80fb00800040001f
:103e9400808e200000804000900078001107980078
:103ea4000000fc001e00900000160200000000004c
:103eb400200798001e009000ae009000ae0702009c
:103ec400000000002e009000aa1d02000000000067
:103ed400e2ff37001623020000000000dfff370076
:020000040000fa
:103ee4000400fa00100798001e009000e0489000bb
:103ef400014f78001e4078000004e0000b003200ff
:103f04001e407800e84f500008003e001e80fb0071
:103f140080004000808e20000080400090007800e7
:103f24001e009000808f500004003200a105200084
:103f3400a06a2800f222020000000000ff3ffc00fb
:103f44001e80fb0080004000808e20000080400026
:103f54008000eb00010878000000fc000080fa00fb
:043f64000000060053
:020000040000fa
:103f68000400fa00000f7800110798001e00900066
:103f7800e30f500004003c0001032000a072280059
:103f8800f2220200000000001e0078008000eb0012
:103f9800210098001e0078008000eb003100980096
:103fa8001e0078008000eb00410098001e00780099
:103fb8008000eb00510098009e0090001e007800e1
:103fc800010878001e0078008040eb00214098002e
:103fd8001e0078008040eb00314098000080fa0015
:043fe80000000600cf
:020000040000fa
:103fec000600fa00404798004e409000e84f500001
:103ffc0008003e004e4090000080fb008000400016
:10400c00808e200000804000100078000000e0004e
:10401c0004003a003106200080752800f2220200cc
:10402c0000000000ff3ffc004e4090000080fb00b1
:10403c0080004000808e200000804000100078003e
:10404c00404890000080fb008000eb00008fbe0019
:10405c000000fc001e00be000080fa0000000600fc
:020000040000fa
:10406c000400fa00100798001e009000e048900031
:10407c00014f78001e4078000004e0000a00320076
:10408c001e407800e84f500007003e001e80fb00e9
:10409c0080004000808e20000080400010007800de
:1040ac000000e0000400320061042000a06a280037
:1040bc00f222020000000000ff3ffc001e80fb000b
:1040cc0080004000808e2000008040009e00900008
:1040dc00010878000000fc000080fa0000000600d7
:020000040000fa
:1040ec000600fa00404798004e4090000004e000a3
:1040fc0005003200608c200010407800ce4090000b
:10410c0080cf500004003600e10420000079280024
:10411c00f222020000000000ff3ffc004e40900025
:10412c000080fb000000e9006a00b9000000780084
:10413c00e8004000808a2000008040001040900081
:10414c000080fb008000eb00008fbe000000fc0034
:0c415c001e00be000080fa0000000600fb
:020000040000fa
:104168000600fa00000f78001107980042479800ef
:104178001e0078008000eb00010878001e0078001f
:104188009e009000110098001e007800ce4090001c
:10419800414098001e0078008040eb005140980094
:1041a8001e0078008040eb00614098001e007800f7
:1041b800ce409000714098001e007800ce409000dc
:0c41c800014898000080fa00000006008a
:020000040000fa
:1041d4000000fa00e0478000f1478000d2dc2000b4
:1041e4000289b900020178006002b90084017800f4
:1041f40003014100d3dc20000300b80001014100a9
:1042040082007800e0478800f1478800e04780009a
:10421400f14780004809dd004800de00000071001d
:0c422400c808de000080fa000000060060
:020000040000fa
:104230000400fa00000f7800110798001e007800b3
:10424000a1002000610898001e00780041062000af
:10425000510898009e0078001e017800700041000f
:1042600042062000521b0200000000001e007800e1
:10427000217021001100980020c0b3000080fa00d6
:044280000000060034
:020000040000fa
:104284000200fa0000802000000f78001e00780071
:10429400612e22000108780021ee21001e00780022
:1042a400110098009e0078007080400051002000aa
:1042b400b41f0200000000009e0078007c804000d3
:1042c40081002000b41f0200000000000080fa00fa
:0442d40000000600e0
:020000040000fa
:1042d8000400fa0010079800ff3ffc001e00900041
:1042e800400090000000e0000600320010c0b3005b
:1042f800004f78001e0090008000eb0041009800fd
:10430800020037000040eb00004f78000000fc007e
:0c4318001e4078000080fa000000060043
:020000040000fa
:104324000200fa00e0842000000f78001e007800ec
:10433400612e220001087800811122001e007800fd
:10434400110098009e007800708040005100200009
:10435400b41f0200000000000080fa000000060004
:020000040000fa
:104364000000fa000001eb00600420007105200049
:104374000310200080497800814978008249780040
:1043840000002300100888000621ef006821ef00d8
:104394006a21ef006c21ef000080fa0000000600a3
:020000040000fa
:1043a4000000fa0080002000002888000225ef00a9
:1043b40030032000402888000a25ef000c25ef0078
:1043c4000e25ef001025ef001225ef001425ef0055
:1043d40001e5a8000345a8000080fa0000000600db
:020000040000fa
:1043e4000000fa005c22ef005222ef00f0f92000f6
:1043f400c012880031058000f0ff280000806000b2
:1044040000e0a0003005880084e0a90094e0a80042
:0c4414005de2a8000080fa000000060035
:020000040000fa
:104420000000fa0000000000102880006100600019
:104430000000e000fcff32001028800062006000f5
:104440000000e000010032000225a90030288000b1
:0c445000004078000080fa000000060028
:020000040000fa
:10445c000200fa00004f78000000000011288000d4
:10446c0000202000008060000000e000fbff3a000c
:10447c001e80fb00202888000080fa000000060047
:020000040000fa
:10448c000000fa00f417020000000000b221020044
:10449c00000000004a23020000000000d2210200ac
:0c44ac00000000000080fa000000060084
:020000040000fa
:1044b8000600fa00000f78001107980022079800fc
:1044c800ae0090001e009000f014020000000000f2
:0844d8000080fa00000006005c
:020000040000fa
:1044e0000600fa00000f78001207980023079800d2
:1044f0009e007800014888001e0090001048880047
:084500000080fa000000060033
:020000040000fa
:104508000400fa0010079800ff3ffc001e0090000e
:10451800c0009000010f78000000fc001e00780029
:084528000080fa00000006000b
:020000040000fa
:104530000000fa0008a1a9008521a900204d200053
:1045400001002000bc220200000000000080fa00f0
:044550000000060061
:020000040000fa
:104554000000fa004048800000f0a7000000ea00d4
:104564000000e9004f00de00004078000080fa00ff
:04457400000006003d
:020000040000fa
:104578000400fa00008fbe001e01be00e24788005a
:0c458800f34788000080fa0000000600e5
:020000040000fa
:104594000200fa00000f78001e007800721f02006b
:0c45a400000000000080fa00000006008b
:020000040000fa
:1045b0000000fa00808c200080077800008e200028
:0c45c000000188000080fa0000000600e6
:020000040000fa
:1045cc000400fa00000f78001107980010c0b30027
:0845dc000080fa000000060057
:020000040000fa
:1045e4000400fa00000f780011079800ff3ffc0058
:0445f400ffff37008e
:020000040000fa
:1045f8000000fa003e230200000000000080fa00dc
:0446080000000600a8
:020000040000fa
:10460c000200fa00000f78000080fa00000006009b
:020000040000fa
:10461c000200fa00004f78000080fa00000006004b
:020000040000fa
:10462c000000fa000000fc000080fa000000060008
:020000040000fa
:10463c000000fa00406928000080fa000000060023
:020000040000fa
:10464c000000fa00106b28000080fa000000060041
:020000040000fa
:10465c00000f78009e00780061488800ffff37004b
:020000040000fa
:10466c000000fa00102880000080fa00000006000c
:020000040000fa
:0c467c000000fa000080fa0000000600b8
:020000040000fa
:0c4688000000fa000080fa0000000600ac
:020000040000fa
:0c4694000000fa000080fa0000000600a0
:020000040000fa
:020000040002f8
:04aff000ffff00005f
:020000040000fa
:020000040002f8
:04aff400fffe00005c
:020000040000fa
:020000040002f8
:04aff8009f90000026
:020000040000fa
:020000040002f8
:04affc003f3f0000d3
:00000001FF
